{
  "address": "0x5FbDB2315678afecb367f032d93F642f64180aa3",
  "abi": [
    {
      "inputs": [],
      "stateMutability": "nonpayable",
      "type": "constructor"
    },
    {
      "anonymous": false,
      "inputs": [
        {
          "indexed": true,
          "internalType": "address",
          "name": "owner",
          "type": "address"
        },
        {
          "indexed": true,
          "internalType": "address",
          "name": "approved",
          "type": "address"
        },
        {
          "indexed": true,
          "internalType": "uint256",
          "name": "tokenId",
          "type": "uint256"
        }
      ],
      "name": "Approval",
      "type": "event"
    },
    {
      "anonymous": false,
      "inputs": [
        {
          "indexed": true,
          "internalType": "address",
          "name": "owner",
          "type": "address"
        },
        {
          "indexed": true,
          "internalType": "address",
          "name": "operator",
          "type": "address"
        },
        {
          "indexed": false,
          "internalType": "bool",
          "name": "approved",
          "type": "bool"
        }
      ],
      "name": "ApprovalForAll",
      "type": "event"
    },
    {
      "anonymous": false,
      "inputs": [
        {
          "indexed": false,
          "internalType": "address",
          "name": "owner",
          "type": "address"
        },
        {
          "indexed": false,
          "internalType": "uint256",
          "name": "createdTime",
          "type": "uint256"
        },
        {
          "indexed": false,
          "internalType": "uint256",
          "name": "startTime",
          "type": "uint256"
        },
        {
          "indexed": false,
          "internalType": "uint256",
          "name": "endTime",
          "type": "uint256"
        },
        {
          "indexed": false,
          "internalType": "string",
          "name": "id",
          "type": "string"
        },
        {
          "indexed": false,
          "internalType": "uint256",
          "name": "onChainId",
          "type": "uint256"
        }
      ],
      "name": "EventCreated",
      "type": "event"
    },
    {
      "anonymous": false,
      "inputs": [
        {
          "indexed": false,
          "internalType": "uint256",
          "name": "id",
          "type": "uint256"
        }
      ],
      "name": "EventDeleted",
      "type": "event"
    },
    {
      "anonymous": false,
      "inputs": [
        {
          "indexed": false,
          "internalType": "uint256",
          "name": "id",
          "type": "uint256"
        },
        {
          "indexed": false,
          "internalType": "uint256",
          "name": "startTime",
          "type": "uint256"
        },
        {
          "indexed": false,
          "internalType": "uint256",
          "name": "endTime",
          "type": "uint256"
        }
      ],
      "name": "EventUpdated",
      "type": "event"
    },
    {
      "anonymous": false,
      "inputs": [
        {
          "indexed": true,
          "internalType": "uint256",
          "name": "tokenId",
          "type": "uint256"
        },
        {
          "indexed": false,
          "internalType": "address",
          "name": "seller",
          "type": "address"
        },
        {
          "indexed": false,
          "internalType": "address",
          "name": "owner",
          "type": "address"
        },
        {
          "indexed": false,
          "internalType": "uint256",
          "name": "price",
          "type": "uint256"
        },
        {
          "indexed": false,
          "internalType": "bool",
          "name": "sold",
          "type": "bool"
        },
        {
          "indexed": false,
          "internalType": "uint256",
          "name": "onChainId",
          "type": "uint256"
        }
      ],
      "name": "MarketItemCreated",
      "type": "event"
    },
    {
      "anonymous": false,
      "inputs": [
        {
          "indexed": false,
          "internalType": "uint256",
          "name": "onChainId",
          "type": "uint256"
        }
      ],
      "name": "MarketItemSold",
      "type": "event"
    },
    {
      "anonymous": false,
      "inputs": [
        {
          "indexed": true,
          "internalType": "address",
          "name": "previousOwner",
          "type": "address"
        },
        {
          "indexed": true,
          "internalType": "address",
          "name": "newOwner",
          "type": "address"
        }
      ],
      "name": "OwnershipTransferred",
      "type": "event"
    },
    {
      "anonymous": false,
      "inputs": [
        {
          "indexed": false,
          "internalType": "uint256",
          "name": "tokenId",
          "type": "uint256"
        },
        {
          "indexed": false,
          "internalType": "uint256",
          "name": "ticketTypeOnChainId",
          "type": "uint256"
        },
        {
          "indexed": false,
          "internalType": "address",
          "name": "ownerAddress",
          "type": "address"
        },
        {
          "indexed": false,
          "internalType": "string",
          "name": "ticketTypeId",
          "type": "string"
        },
        {
          "indexed": false,
          "internalType": "int256",
          "name": "limitCurrent",
          "type": "int256"
        }
      ],
      "name": "TicketSold",
      "type": "event"
    },
    {
      "anonymous": false,
      "inputs": [
        {
          "indexed": false,
          "internalType": "uint256",
          "name": "eventOnChainId",
          "type": "uint256"
        },
        {
          "indexed": false,
          "internalType": "uint256",
          "name": "createdTime",
          "type": "uint256"
        },
        {
          "indexed": false,
          "internalType": "string",
          "name": "id",
          "type": "string"
        },
        {
          "indexed": false,
          "internalType": "uint256",
          "name": "price",
          "type": "uint256"
        },
        {
          "indexed": false,
          "internalType": "uint256",
          "name": "startSellingTime",
          "type": "uint256"
        },
        {
          "indexed": false,
          "internalType": "uint256",
          "name": "endSellingTime",
          "type": "uint256"
        },
        {
          "indexed": false,
          "internalType": "int256",
          "name": "totalLimit",
          "type": "int256"
        },
        {
          "indexed": false,
          "internalType": "int256",
          "name": "currentLimit",
          "type": "int256"
        },
        {
          "indexed": false,
          "internalType": "string",
          "name": "eventId",
          "type": "string"
        },
        {
          "indexed": false,
          "internalType": "uint256",
          "name": "onChainId",
          "type": "uint256"
        }
      ],
      "name": "TicketTypeCreated",
      "type": "event"
    },
    {
      "anonymous": false,
      "inputs": [
        {
          "indexed": true,
          "internalType": "address",
          "name": "from",
          "type": "address"
        },
        {
          "indexed": true,
          "internalType": "address",
          "name": "to",
          "type": "address"
        },
        {
          "indexed": true,
          "internalType": "uint256",
          "name": "tokenId",
          "type": "uint256"
        }
      ],
      "name": "Transfer",
      "type": "event"
    },
    {
      "inputs": [
        {
          "internalType": "address",
          "name": "to",
          "type": "address"
        },
        {
          "internalType": "uint256",
          "name": "tokenId",
          "type": "uint256"
        }
      ],
      "name": "approve",
      "outputs": [],
      "stateMutability": "nonpayable",
      "type": "function"
    },
    {
      "inputs": [
        {
          "internalType": "address",
          "name": "owner",
          "type": "address"
        }
      ],
      "name": "balanceOf",
      "outputs": [
        {
          "internalType": "uint256",
          "name": "",
          "type": "uint256"
        }
      ],
      "stateMutability": "view",
      "type": "function"
    },
    {
      "inputs": [
        {
          "internalType": "uint256",
          "name": "startTime",
          "type": "uint256"
        },
        {
          "internalType": "uint256",
          "name": "endTime",
          "type": "uint256"
        },
        {
          "internalType": "string",
          "name": "id",
          "type": "string"
        }
      ],
      "name": "createEvent",
      "outputs": [],
      "stateMutability": "nonpayable",
      "type": "function"
    },
    {
      "inputs": [
        {
          "internalType": "uint256",
          "name": "marketId",
          "type": "uint256"
        }
      ],
      "name": "createMarketSale",
      "outputs": [],
      "stateMutability": "payable",
      "type": "function"
    },
    {
      "inputs": [
        {
          "internalType": "uint256",
          "name": "eventId",
          "type": "uint256"
        },
        {
          "internalType": "string",
          "name": "id",
          "type": "string"
        },
        {
          "internalType": "uint256",
          "name": "price",
          "type": "uint256"
        },
        {
          "internalType": "uint256",
          "name": "startSellingTime",
          "type": "uint256"
        },
        {
          "internalType": "uint256",
          "name": "endSellingTime",
          "type": "uint256"
        },
        {
          "internalType": "int256",
          "name": "limit",
          "type": "int256"
        }
      ],
      "name": "createTicketType",
      "outputs": [],
      "stateMutability": "nonpayable",
      "type": "function"
    },
    {
      "inputs": [],
      "name": "createToken",
      "outputs": [
        {
          "internalType": "uint256",
          "name": "",
          "type": "uint256"
        }
      ],
      "stateMutability": "nonpayable",
      "type": "function"
    },
    {
      "inputs": [],
      "name": "fetchItemsListed",
      "outputs": [
        {
          "components": [
            {
              "internalType": "uint256",
              "name": "tokenId",
              "type": "uint256"
            },
            {
              "internalType": "address payable",
              "name": "seller",
              "type": "address"
            },
            {
              "internalType": "address payable",
              "name": "owner",
              "type": "address"
            },
            {
              "internalType": "uint256",
              "name": "price",
              "type": "uint256"
            },
            {
              "internalType": "bool",
              "name": "sold",
              "type": "bool"
            }
          ],
          "internalType": "struct NFTTicketMarketplace.MarketItem[]",
          "name": "",
          "type": "tuple[]"
        }
      ],
      "stateMutability": "view",
      "type": "function"
    },
    {
      "inputs": [],
      "name": "fetchMarketItems",
      "outputs": [
        {
          "components": [
            {
              "internalType": "uint256",
              "name": "tokenId",
              "type": "uint256"
            },
            {
              "internalType": "address payable",
              "name": "seller",
              "type": "address"
            },
            {
              "internalType": "address payable",
              "name": "owner",
              "type": "address"
            },
            {
              "internalType": "uint256",
              "name": "price",
              "type": "uint256"
            },
            {
              "internalType": "bool",
              "name": "sold",
              "type": "bool"
            }
          ],
          "internalType": "struct NFTTicketMarketplace.MarketItem[]",
          "name": "",
          "type": "tuple[]"
        }
      ],
      "stateMutability": "view",
      "type": "function"
    },
    {
      "inputs": [],
      "name": "fetchMyNFTs",
      "outputs": [
        {
          "components": [
            {
              "internalType": "uint256",
              "name": "tokenId",
              "type": "uint256"
            },
            {
              "internalType": "address payable",
              "name": "seller",
              "type": "address"
            },
            {
              "internalType": "address payable",
              "name": "owner",
              "type": "address"
            },
            {
              "internalType": "uint256",
              "name": "price",
              "type": "uint256"
            },
            {
              "internalType": "bool",
              "name": "sold",
              "type": "bool"
            }
          ],
          "internalType": "struct NFTTicketMarketplace.MarketItem[]",
          "name": "",
          "type": "tuple[]"
        }
      ],
      "stateMutability": "view",
      "type": "function"
    },
    {
      "inputs": [
        {
          "internalType": "uint256",
          "name": "tokenId",
          "type": "uint256"
        }
      ],
      "name": "getApproved",
      "outputs": [
        {
          "internalType": "address",
          "name": "",
          "type": "address"
        }
      ],
      "stateMutability": "view",
      "type": "function"
    },
    {
      "inputs": [],
      "name": "getListingPrice",
      "outputs": [
        {
          "internalType": "uint256",
          "name": "",
          "type": "uint256"
        }
      ],
      "stateMutability": "view",
      "type": "function"
    },
    {
      "inputs": [
        {
          "internalType": "address",
          "name": "owner",
          "type": "address"
        },
        {
          "internalType": "address",
          "name": "operator",
          "type": "address"
        }
      ],
      "name": "isApprovedForAll",
      "outputs": [
        {
          "internalType": "bool",
          "name": "",
          "type": "bool"
        }
      ],
      "stateMutability": "view",
      "type": "function"
    },
    {
      "inputs": [],
      "name": "name",
      "outputs": [
        {
          "internalType": "string",
          "name": "",
          "type": "string"
        }
      ],
      "stateMutability": "view",
      "type": "function"
    },
    {
      "inputs": [],
      "name": "owner",
      "outputs": [
        {
          "internalType": "address",
          "name": "",
          "type": "address"
        }
      ],
      "stateMutability": "view",
      "type": "function"
    },
    {
      "inputs": [
        {
          "internalType": "uint256",
          "name": "tokenId",
          "type": "uint256"
        }
      ],
      "name": "ownerOf",
      "outputs": [
        {
          "internalType": "address",
          "name": "",
          "type": "address"
        }
      ],
      "stateMutability": "view",
      "type": "function"
    },
    {
      "inputs": [
        {
          "internalType": "uint256",
          "name": "ticketTypeId",
          "type": "uint256"
        }
      ],
      "name": "payForTicket",
      "outputs": [
        {
          "internalType": "uint256",
          "name": "",
          "type": "uint256"
        }
      ],
      "stateMutability": "payable",
      "type": "function"
    },
    {
      "inputs": [],
      "name": "renounceOwnership",
      "outputs": [],
      "stateMutability": "nonpayable",
      "type": "function"
    },
    {
      "inputs": [
        {
          "internalType": "uint256",
          "name": "tokenId",
          "type": "uint256"
        },
        {
          "internalType": "uint256",
          "name": "price",
          "type": "uint256"
        }
      ],
      "name": "resellToken",
      "outputs": [],
      "stateMutability": "payable",
      "type": "function"
    },
    {
      "inputs": [
        {
          "internalType": "address",
          "name": "from",
          "type": "address"
        },
        {
          "internalType": "address",
          "name": "to",
          "type": "address"
        },
        {
          "internalType": "uint256",
          "name": "tokenId",
          "type": "uint256"
        }
      ],
      "name": "safeTransferFrom",
      "outputs": [],
      "stateMutability": "nonpayable",
      "type": "function"
    },
    {
      "inputs": [
        {
          "internalType": "address",
          "name": "from",
          "type": "address"
        },
        {
          "internalType": "address",
          "name": "to",
          "type": "address"
        },
        {
          "internalType": "uint256",
          "name": "tokenId",
          "type": "uint256"
        },
        {
          "internalType": "bytes",
          "name": "_data",
          "type": "bytes"
        }
      ],
      "name": "safeTransferFrom",
      "outputs": [],
      "stateMutability": "nonpayable",
      "type": "function"
    },
    {
      "inputs": [
        {
          "internalType": "address",
          "name": "operator",
          "type": "address"
        },
        {
          "internalType": "bool",
          "name": "approved",
          "type": "bool"
        }
      ],
      "name": "setApprovalForAll",
      "outputs": [],
      "stateMutability": "nonpayable",
      "type": "function"
    },
    {
      "inputs": [
        {
          "internalType": "string",
          "name": "uri",
          "type": "string"
        }
      ],
      "name": "setBaseURI",
      "outputs": [],
      "stateMutability": "nonpayable",
      "type": "function"
    },
    {
      "inputs": [
        {
          "internalType": "bytes4",
          "name": "interfaceId",
          "type": "bytes4"
        }
      ],
      "name": "supportsInterface",
      "outputs": [
        {
          "internalType": "bool",
          "name": "",
          "type": "bool"
        }
      ],
      "stateMutability": "view",
      "type": "function"
    },
    {
      "inputs": [],
      "name": "symbol",
      "outputs": [
        {
          "internalType": "string",
          "name": "",
          "type": "string"
        }
      ],
      "stateMutability": "view",
      "type": "function"
    },
    {
      "inputs": [
        {
          "internalType": "uint256",
          "name": "tokenId",
          "type": "uint256"
        }
      ],
      "name": "tokenURI",
      "outputs": [
        {
          "internalType": "string",
          "name": "",
          "type": "string"
        }
      ],
      "stateMutability": "view",
      "type": "function"
    },
    {
      "inputs": [
        {
          "internalType": "address",
          "name": "from",
          "type": "address"
        },
        {
          "internalType": "address",
          "name": "to",
          "type": "address"
        },
        {
          "internalType": "uint256",
          "name": "tokenId",
          "type": "uint256"
        }
      ],
      "name": "transferFrom",
      "outputs": [],
      "stateMutability": "nonpayable",
      "type": "function"
    },
    {
      "inputs": [
        {
          "internalType": "address",
          "name": "newOwner",
          "type": "address"
        }
      ],
      "name": "transferOwnership",
      "outputs": [],
      "stateMutability": "nonpayable",
      "type": "function"
    },
    {
      "inputs": [
        {
          "internalType": "uint256",
          "name": "eventId",
          "type": "uint256"
        },
        {
          "internalType": "uint256",
          "name": "startTime",
          "type": "uint256"
        },
        {
          "internalType": "uint256",
          "name": "endTime",
          "type": "uint256"
        }
      ],
      "name": "updateEvent",
      "outputs": [],
      "stateMutability": "nonpayable",
      "type": "function"
    },
    {
      "inputs": [
        {
          "internalType": "uint256",
          "name": "_listingPrice",
          "type": "uint256"
        }
      ],
      "name": "updateListingPrice",
      "outputs": [],
      "stateMutability": "payable",
      "type": "function"
    }
  ],
  "transactionHash": "0x1561b45c850358562275db30a65ee4ebd94cd3609265b3aaf107f4472ea216ed",
  "args": [],
  "numDeployments": 1,
  "solcInputHash": "f5668983daba7280a897977fcb7eafd3",
  "bytecode": "0x608060405260405180606001604052806028815260200162005333602891396007908051906020019062000035929190620001e3565b506658d15e17628000600d553480156200004e57600080fd5b506040518060400160405280600d81526020017f5469636b657420546f6b656e73000000000000000000000000000000000000008152506040518060400160405280600481526020017f54434b54000000000000000000000000000000000000000000000000000000008152508160009080519060200190620000d3929190620001e3565b508060019080519060200190620000ec929190620001e3565b5050506200010f620001036200011560201b60201c565b6200011d60201b60201c565b620002f8565b600033905090565b6000600660009054906101000a900473ffffffffffffffffffffffffffffffffffffffff16905081600660006101000a81548173ffffffffffffffffffffffffffffffffffffffff021916908373ffffffffffffffffffffffffffffffffffffffff1602179055508173ffffffffffffffffffffffffffffffffffffffff168173ffffffffffffffffffffffffffffffffffffffff167f8be0079c531659141344cd1fd0a4f28419497f9722a3daafe3b4186f6b6457e060405160405180910390a35050565b828054620001f190620002c2565b90600052602060002090601f01602090048101928262000215576000855562000261565b82601f106200023057805160ff191683800117855562000261565b8280016001018555821562000261579182015b828111156200026057825182559160200191906001019062000243565b5b50905062000270919062000274565b5090565b5b808211156200028f57600081600090555060010162000275565b5090565b7f4e487b7100000000000000000000000000000000000000000000000000000000600052602260045260246000fd5b60006002820490506001821680620002db57607f821691505b60208210811415620002f257620002f162000293565b5b50919050565b61502b80620003086000396000f3fe6080604052600436106101c25760003560e01c806355f804b3116100f7578063a22cb46511610095578063c87b56dd11610064578063c87b56dd14610603578063e219fc7514610640578063e985e9c51461065c578063f2fde38b14610699576101c2565b8063a22cb46514610579578063ae677aa3146105a2578063b88d4fde146105be578063be9af536146105e7576101c2565b8063715018a6116100d1578063715018a6146104e15780638da5cb5b146104f857806395d89b41146105235780639cbf9e361461054e576101c2565b806355f804b31461043e5780636352211e1461046757806370a08231146104a4576101c2565b8063202e374011610164578063294e0d561161013e578063294e0d561461039157806342842e0e146103ba57806345f8fa80146103e35780634868cd631461040e576101c2565b8063202e37401461031457806323b872dd1461033f5780632529851014610368576101c2565b8063095ea7b3116101a0578063095ea7b31461026c5780630f08efe0146102955780630fbfe0e9146102c057806312e85585146102e9576101c2565b806301ffc9a7146101c757806306fdde0314610204578063081812fc1461022f575b600080fd5b3480156101d357600080fd5b506101ee60048036038101906101e991906132e0565b6106c2565b6040516101fb9190613328565b60405180910390f35b34801561021057600080fd5b506102196107a4565b60405161022691906133dc565b60405180910390f35b34801561023b57600080fd5b5061025660048036038101906102519190613434565b610836565b60405161026391906134a2565b60405180910390f35b34801561027857600080fd5b50610293600480360381019061028e91906134e9565b6108bb565b005b3480156102a157600080fd5b506102aa6109d3565b6040516102b7919061367f565b60405180910390f35b3480156102cc57600080fd5b506102e760048036038101906102e2919061380c565b610c3c565b005b3480156102f557600080fd5b506102fe610de1565b60405161030b91906138c4565b60405180910390f35b34801561032057600080fd5b50610329610deb565b604051610336919061367f565b60405180910390f35b34801561034b57600080fd5b50610366600480360381019061036191906138df565b6110d9565b005b34801561037457600080fd5b5061038f600480360381019061038a9190613932565b611139565b005b34801561039d57600080fd5b506103b860048036038101906103b39190613985565b611219565b005b3480156103c657600080fd5b506103e160048036038101906103dc91906138df565b611376565b005b3480156103ef57600080fd5b506103f8611396565b604051610405919061367f565b60405180910390f35b61042860048036038101906104239190613434565b611684565b60405161043591906138c4565b60405180910390f35b34801561044a57600080fd5b50610465600480360381019061046091906139f4565b6118b1565b005b34801561047357600080fd5b5061048e60048036038101906104899190613434565b611947565b60405161049b91906134a2565b60405180910390f35b3480156104b057600080fd5b506104cb60048036038101906104c69190613a3d565b6119f9565b6040516104d891906138c4565b60405180910390f35b3480156104ed57600080fd5b506104f6611ab1565b005b34801561050457600080fd5b5061050d611b39565b60405161051a91906134a2565b60405180910390f35b34801561052f57600080fd5b50610538611b63565b60405161054591906133dc565b60405180910390f35b34801561055a57600080fd5b50610563611bf5565b60405161057091906138c4565b60405180910390f35b34801561058557600080fd5b506105a0600480360381019061059b9190613a96565b611c20565b005b6105bc60048036038101906105b79190613434565b611c36565b005b3480156105ca57600080fd5b506105e560048036038101906105e09190613b77565b611cbc565b005b61060160048036038101906105fc9190613434565b611d1e565b005b34801561060f57600080fd5b5061062a60048036038101906106259190613434565b611f78565b60405161063791906133dc565b60405180910390f35b61065a60048036038101906106559190613bfa565b61201f565b005b34801561066857600080fd5b50610683600480360381019061067e9190613c3a565b612236565b6040516106909190613328565b60405180910390f35b3480156106a557600080fd5b506106c060048036038101906106bb9190613a3d565b6122ca565b005b60007f80ac58cd000000000000000000000000000000000000000000000000000000007bffffffffffffffffffffffffffffffffffffffffffffffffffffffff1916827bffffffffffffffffffffffffffffffffffffffffffffffffffffffff1916148061078d57507f5b5e139f000000000000000000000000000000000000000000000000000000007bffffffffffffffffffffffffffffffffffffffffffffffffffffffff1916827bffffffffffffffffffffffffffffffffffffffffffffffffffffffff1916145b8061079d575061079c826123c2565b5b9050919050565b6060600080546107b390613ca9565b80601f01602080910402602001604051908101604052809291908181526020018280546107df90613ca9565b801561082c5780601f106108015761010080835404028352916020019161082c565b820191906000526020600020905b81548152906001019060200180831161080f57829003601f168201915b5050505050905090565b60006108418261242c565b610880576040517f08c379a000000000000000000000000000000000000000000000000000000000815260040161087790613d4d565b60405180910390fd5b6004600083815260200190815260200160002060009054906101000a900473ffffffffffffffffffffffffffffffffffffffff169050919050565b60006108c682611947565b90508073ffffffffffffffffffffffffffffffffffffffff168373ffffffffffffffffffffffffffffffffffffffff161415610937576040517f08c379a000000000000000000000000000000000000000000000000000000000815260040161092e90613ddf565b60405180910390fd5b8073ffffffffffffffffffffffffffffffffffffffff16610956612498565b73ffffffffffffffffffffffffffffffffffffffff16148061098557506109848161097f612498565b612236565b5b6109c4576040517f08c379a00000000000000000000000000000000000000000000000000000000081526004016109bb90613e71565b60405180910390fd5b6109ce83836124a0565b505050565b606060006109e1600c612559565b905060006109ef600b612559565b6109f9600c612559565b610a039190613ec0565b90506000808267ffffffffffffffff811115610a2257610a216136ab565b5b604051908082528060200260200182016040528015610a5b57816020015b610a48613174565b815260200190600190039081610a405790505b50905060005b84811015610c31573073ffffffffffffffffffffffffffffffffffffffff16600e6000600184610a919190613ef4565b815260200190815260200160002060020160009054906101000a900473ffffffffffffffffffffffffffffffffffffffff1673ffffffffffffffffffffffffffffffffffffffff161415610c1e576000600182610aee9190613ef4565b90506000600e60008381526020019081526020016000209050806040518060a0016040529081600082015481526020016001820160009054906101000a900473ffffffffffffffffffffffffffffffffffffffff1673ffffffffffffffffffffffffffffffffffffffff1673ffffffffffffffffffffffffffffffffffffffff1681526020016002820160009054906101000a900473ffffffffffffffffffffffffffffffffffffffff1673ffffffffffffffffffffffffffffffffffffffff1673ffffffffffffffffffffffffffffffffffffffff168152602001600382015481526020016004820160009054906101000a900460ff161515151581525050848681518110610c0157610c00613f4a565b5b6020026020010181905250600185610c199190613ef4565b945050505b8080610c2990613f79565b915050610a61565b508094505050505090565b60008411610c7f576040517f08c379a0000000000000000000000000000000000000000000000000000000008152600401610c769061400e565b60405180910390fd5b610c89600a612567565b6000610c95600a612559565b9050604051806101200160405280888152602001428152602001878152602001868152602001858152602001848152602001838152602001838152602001600115158152506010600083815260200190815260200160002060008201518160000155602082015181600101556040820151816002019080519060200190610d1d9291906131d1565b50606082015181600301556080820151816004015560a0820151816005015560c0820151816006015560e082015181600701556101008201518160080160006101000a81548160ff0219169083151502179055509050506000600f600089815260200190815260200160002090507f23e43aa87fb6cd6e0767623783aeb3c1c4aab2dd562879333c14e692a2a6d348884289898989898a896004018b604051610dcf9a999897969594939291906140d2565b60405180910390a15050505050505050565b6000600d54905090565b60606000610df96008612559565b905060008060005b83811015610ea2573373ffffffffffffffffffffffffffffffffffffffff16600e6000600184610e319190613ef4565b815260200190815260200160002060020160009054906101000a900473ffffffffffffffffffffffffffffffffffffffff1673ffffffffffffffffffffffffffffffffffffffff161415610e8f57600183610e8c9190613ef4565b92505b8080610e9a90613f79565b915050610e01565b5060008267ffffffffffffffff811115610ebf57610ebe6136ab565b5b604051908082528060200260200182016040528015610ef857816020015b610ee5613174565b815260200190600190039081610edd5790505b50905060005b848110156110ce573373ffffffffffffffffffffffffffffffffffffffff16600e6000600184610f2e9190613ef4565b815260200190815260200160002060020160009054906101000a900473ffffffffffffffffffffffffffffffffffffffff1673ffffffffffffffffffffffffffffffffffffffff1614156110bb576000600182610f8b9190613ef4565b90506000600e60008381526020019081526020016000209050806040518060a0016040529081600082015481526020016001820160009054906101000a900473ffffffffffffffffffffffffffffffffffffffff1673ffffffffffffffffffffffffffffffffffffffff1673ffffffffffffffffffffffffffffffffffffffff1681526020016002820160009054906101000a900473ffffffffffffffffffffffffffffffffffffffff1673ffffffffffffffffffffffffffffffffffffffff1673ffffffffffffffffffffffffffffffffffffffff168152602001600382015481526020016004820160009054906101000a900460ff16151515158152505084868151811061109e5761109d613f4a565b5b60200260200101819052506001856110b69190613ef4565b945050505b80806110c690613f79565b915050610efe565b508094505050505090565b6110ea6110e4612498565b8261257d565b611129576040517f08c379a0000000000000000000000000000000000000000000000000000000008152600401611120906141ee565b60405180910390fd5b61113483838361265b565b505050565b60011515600f600085815260200190815260200160002060050160009054906101000a900460ff161515146111a3576040517f08c379a000000000000000000000000000000000000000000000000000000000815260040161119a9061425a565b60405180910390fd5b81600f60008581526020019081526020016000206002018190555080600f6000858152602001908152602001600020600201819055507f7068eff53d4130b0bc23272635506565df6c5b683e458708df42b5468245b7bd83838360405161120c9392919061427a565b60405180910390a1505050565b6112236009612567565b600061122f6009612559565b90506040518060c001604052803373ffffffffffffffffffffffffffffffffffffffff16815260200142815260200185815260200184815260200183815260200160011515815250600f600083815260200190815260200160002060008201518160000160006101000a81548173ffffffffffffffffffffffffffffffffffffffff021916908373ffffffffffffffffffffffffffffffffffffffff160217905550602082015181600101556040820151816002015560608201518160030155608082015181600401908051906020019061130b9291906131d1565b5060a08201518160050160006101000a81548160ff0219169083151502179055509050507ff721e33d46866b7b414e72296025134f1a7942e8b66fa29295f2158d6d8f6a35334286868686604051611368969594939291906142b1565b60405180910390a150505050565b61139183838360405180602001604052806000815250611cbc565b505050565b606060006113a46008612559565b905060008060005b8381101561144d573373ffffffffffffffffffffffffffffffffffffffff16600e60006001846113dc9190613ef4565b815260200190815260200160002060010160009054906101000a900473ffffffffffffffffffffffffffffffffffffffff1673ffffffffffffffffffffffffffffffffffffffff16141561143a576001836114379190613ef4565b92505b808061144590613f79565b9150506113ac565b5060008267ffffffffffffffff81111561146a576114696136ab565b5b6040519080825280602002602001820160405280156114a357816020015b611490613174565b8152602001906001900390816114885790505b50905060005b84811015611679573373ffffffffffffffffffffffffffffffffffffffff16600e60006001846114d99190613ef4565b815260200190815260200160002060010160009054906101000a900473ffffffffffffffffffffffffffffffffffffffff1673ffffffffffffffffffffffffffffffffffffffff1614156116665760006001826115369190613ef4565b90506000600e60008381526020019081526020016000209050806040518060a0016040529081600082015481526020016001820160009054906101000a900473ffffffffffffffffffffffffffffffffffffffff1673ffffffffffffffffffffffffffffffffffffffff1673ffffffffffffffffffffffffffffffffffffffff1681526020016002820160009054906101000a900473ffffffffffffffffffffffffffffffffffffffff1673ffffffffffffffffffffffffffffffffffffffff1673ffffffffffffffffffffffffffffffffffffffff168152602001600382015481526020016004820160009054906101000a900460ff16151515158152505084868151811061164957611648613f4a565b5b60200260200101819052506001856116619190613ef4565b945050505b808061167190613f79565b9150506114a9565b508094505050505090565b60008060106000848152602001908152602001600020905060008160030154116116e3576040517f08c379a00000000000000000000000000000000000000000000000000000000081526004016116da90614365565b60405180910390fd5b34816003015414611729576040517f08c379a0000000000000000000000000000000000000000000000000000000008152600401611720906143d1565b60405180910390fd5b4281600401541180156117515750601060008481526020019081526020016000206005015442105b611790576040517f08c379a00000000000000000000000000000000000000000000000000000000081526004016117879061443d565b60405180910390fd5b7fffffffffffffffffffffffffffffffffffffffffffffffffffffffffffffffff816006015414806117c6575060008160060154135b611805576040517f08c379a00000000000000000000000000000000000000000000000000000000081526004016117fc906144a9565b60405180910390fd5b7fffffffffffffffffffffffffffffffffffffffffffffffffffffffffffffffff81600601541461184b57806007016000815480929190611845906144c9565b91905055505b6000611855611bf5565b905061186181856128c2565b7f8f452c855319507558f448a0bc0d50aa975f3508ef157722a8c8cdc006def7eb81853385600201866007015460405161189f959493929190614512565b60405180910390a18092505050919050565b6118b9612498565b73ffffffffffffffffffffffffffffffffffffffff166118d7611b39565b73ffffffffffffffffffffffffffffffffffffffff161461192d576040517f08c379a0000000000000000000000000000000000000000000000000000000008152600401611924906145b8565b60405180910390fd5b80600790805190602001906119439291906131d1565b5050565b6000806002600084815260200190815260200160002060009054906101000a900473ffffffffffffffffffffffffffffffffffffffff169050600073ffffffffffffffffffffffffffffffffffffffff168173ffffffffffffffffffffffffffffffffffffffff1614156119f0576040517f08c379a00000000000000000000000000000000000000000000000000000000081526004016119e79061464a565b60405180910390fd5b80915050919050565b60008073ffffffffffffffffffffffffffffffffffffffff168273ffffffffffffffffffffffffffffffffffffffff161415611a6a576040517f08c379a0000000000000000000000000000000000000000000000000000000008152600401611a61906146dc565b60405180910390fd5b600360008373ffffffffffffffffffffffffffffffffffffffff1673ffffffffffffffffffffffffffffffffffffffff168152602001908152602001600020549050919050565b611ab9612498565b73ffffffffffffffffffffffffffffffffffffffff16611ad7611b39565b73ffffffffffffffffffffffffffffffffffffffff1614611b2d576040517f08c379a0000000000000000000000000000000000000000000000000000000008152600401611b24906145b8565b60405180910390fd5b611b376000612954565b565b6000600660009054906101000a900473ffffffffffffffffffffffffffffffffffffffff16905090565b606060018054611b7290613ca9565b80601f0160208091040260200160405190810160405280929190818152602001828054611b9e90613ca9565b8015611beb5780601f10611bc057610100808354040283529160200191611beb565b820191906000526020600020905b815481529060010190602001808311611bce57829003601f168201915b5050505050905090565b6000611c016008612567565b6000611c0d6008612559565b9050611c193382612a1a565b8091505090565b611c32611c2b612498565b8383612bf4565b5050565b611c3e612498565b73ffffffffffffffffffffffffffffffffffffffff16611c5c611b39565b73ffffffffffffffffffffffffffffffffffffffff1614611cb2576040517f08c379a0000000000000000000000000000000000000000000000000000000008152600401611ca9906145b8565b60405180910390fd5b80600d8190555050565b611ccd611cc7612498565b8361257d565b611d0c576040517f08c379a0000000000000000000000000000000000000000000000000000000008152600401611d03906141ee565b60405180910390fd5b611d1884848484612d61565b50505050565b6000600e60008381526020019081526020016000206003015490506000600e600084815260200190815260200160002060010160009054906101000a900473ffffffffffffffffffffffffffffffffffffffff169050813414611db6576040517f08c379a0000000000000000000000000000000000000000000000000000000008152600401611dad9061476e565b60405180910390fd5b33600e600085815260200190815260200160002060020160006101000a81548173ffffffffffffffffffffffffffffffffffffffff021916908373ffffffffffffffffffffffffffffffffffffffff1602179055506001600e600085815260200190815260200160002060040160006101000a81548160ff0219169083151502179055506000600e600085815260200190815260200160002060010160006101000a81548173ffffffffffffffffffffffffffffffffffffffff021916908373ffffffffffffffffffffffffffffffffffffffff160217905550611e9a600b612567565b611ea530338561265b565b611ead611b39565b73ffffffffffffffffffffffffffffffffffffffff166108fc600d549081150290604051600060405180830381858888f19350505050158015611ef4573d6000803e3d6000fd5b508073ffffffffffffffffffffffffffffffffffffffff166108fc349081150290604051600060405180830381858888f19350505050158015611f3b573d6000803e3d6000fd5b507f5edde87e7efe9511fd280717315e9a4c5f46a6a84becfc74084b59e48154084483604051611f6b91906138c4565b60405180910390a1505050565b6060611f838261242c565b611fc2576040517f08c379a0000000000000000000000000000000000000000000000000000000008152600401611fb990614800565b60405180910390fd5b6000611fcc612dbd565b90506000815111611fec5760405180602001604052806000815250612017565b80611ff684612e4f565b60405160200161200792919061485c565b6040516020818303038152906040525b915050919050565b3373ffffffffffffffffffffffffffffffffffffffff1661203f83611947565b73ffffffffffffffffffffffffffffffffffffffff1614612095576040517f08c379a000000000000000000000000000000000000000000000000000000000815260040161208c906148f2565b60405180910390fd5b600d5434146120d9576040517f08c379a00000000000000000000000000000000000000000000000000000000081526004016120d090614984565b60405180910390fd5b6120e3600c612567565b60006120ef600c612559565b90506000600e600083815260200190815260200160002060040160006101000a81548160ff02191690831515021790555081600e60008381526020019081526020016000206003018190555033600e600083815260200190815260200160002060010160006101000a81548173ffffffffffffffffffffffffffffffffffffffff021916908373ffffffffffffffffffffffffffffffffffffffff16021790555030600e600083815260200190815260200160002060020160006101000a81548173ffffffffffffffffffffffffffffffffffffffff021916908373ffffffffffffffffffffffffffffffffffffffff1602179055506121f033308561265b565b827f2d68735082042d66c5027bd8c6f7e29d9eaa7ce21cd00f9671f170b22a091d283330856000866040516122299594939291906149a4565b60405180910390a2505050565b6000600560008473ffffffffffffffffffffffffffffffffffffffff1673ffffffffffffffffffffffffffffffffffffffff16815260200190815260200160002060008373ffffffffffffffffffffffffffffffffffffffff1673ffffffffffffffffffffffffffffffffffffffff16815260200190815260200160002060009054906101000a900460ff16905092915050565b6122d2612498565b73ffffffffffffffffffffffffffffffffffffffff166122f0611b39565b73ffffffffffffffffffffffffffffffffffffffff1614612346576040517f08c379a000000000000000000000000000000000000000000000000000000000815260040161233d906145b8565b60405180910390fd5b600073ffffffffffffffffffffffffffffffffffffffff168173ffffffffffffffffffffffffffffffffffffffff1614156123b6576040517f08c379a00000000000000000000000000000000000000000000000000000000081526004016123ad90614a69565b60405180910390fd5b6123bf81612954565b50565b60007f01ffc9a7000000000000000000000000000000000000000000000000000000007bffffffffffffffffffffffffffffffffffffffffffffffffffffffff1916827bffffffffffffffffffffffffffffffffffffffffffffffffffffffff1916149050919050565b60008073ffffffffffffffffffffffffffffffffffffffff166002600084815260200190815260200160002060009054906101000a900473ffffffffffffffffffffffffffffffffffffffff1673ffffffffffffffffffffffffffffffffffffffff1614159050919050565b600033905090565b816004600083815260200190815260200160002060006101000a81548173ffffffffffffffffffffffffffffffffffffffff021916908373ffffffffffffffffffffffffffffffffffffffff160217905550808273ffffffffffffffffffffffffffffffffffffffff1661251383611947565b73ffffffffffffffffffffffffffffffffffffffff167f8c5be1e5ebec7d5bd14f71427d1e84f3dd0314c0f7b2291e5b200ac8c7c3b92560405160405180910390a45050565b600081600001549050919050565b6001816000016000828254019250508190555050565b60006125888261242c565b6125c7576040517f08c379a00000000000000000000000000000000000000000000000000000000081526004016125be90614afb565b60405180910390fd5b60006125d283611947565b90508073ffffffffffffffffffffffffffffffffffffffff168473ffffffffffffffffffffffffffffffffffffffff16148061261457506126138185612236565b5b8061265257508373ffffffffffffffffffffffffffffffffffffffff1661263a84610836565b73ffffffffffffffffffffffffffffffffffffffff16145b91505092915050565b8273ffffffffffffffffffffffffffffffffffffffff1661267b82611947565b73ffffffffffffffffffffffffffffffffffffffff16146126d1576040517f08c379a00000000000000000000000000000000000000000000000000000000081526004016126c890614b8d565b60405180910390fd5b600073ffffffffffffffffffffffffffffffffffffffff168273ffffffffffffffffffffffffffffffffffffffff161415612741576040517f08c379a000000000000000000000000000000000000000000000000000000000815260040161273890614c1f565b60405180910390fd5b61274c838383612fb0565b6127576000826124a0565b6001600360008573ffffffffffffffffffffffffffffffffffffffff1673ffffffffffffffffffffffffffffffffffffffff16815260200190815260200160002060008282546127a79190613ec0565b925050819055506001600360008473ffffffffffffffffffffffffffffffffffffffff1673ffffffffffffffffffffffffffffffffffffffff16815260200190815260200160002060008282546127fe9190613ef4565b92505081905550816002600083815260200190815260200160002060006101000a81548173ffffffffffffffffffffffffffffffffffffffff021916908373ffffffffffffffffffffffffffffffffffffffff160217905550808273ffffffffffffffffffffffffffffffffffffffff168473ffffffffffffffffffffffffffffffffffffffff167fddf252ad1be2c89b69c2b068fc378daa952ba7f163c4a11628f55a4df523b3ef60405160405180910390a46128bd838383612fb5565b505050565b6128cb82611947565b73ffffffffffffffffffffffffffffffffffffffff163373ffffffffffffffffffffffffffffffffffffffff1614612938576040517f08c379a000000000000000000000000000000000000000000000000000000000815260040161292f90614c8b565b60405180910390fd5b8060116000848152602001908152602001600020819055505050565b6000600660009054906101000a900473ffffffffffffffffffffffffffffffffffffffff16905081600660006101000a81548173ffffffffffffffffffffffffffffffffffffffff021916908373ffffffffffffffffffffffffffffffffffffffff1602179055508173ffffffffffffffffffffffffffffffffffffffff168173ffffffffffffffffffffffffffffffffffffffff167f8be0079c531659141344cd1fd0a4f28419497f9722a3daafe3b4186f6b6457e060405160405180910390a35050565b600073ffffffffffffffffffffffffffffffffffffffff168273ffffffffffffffffffffffffffffffffffffffff161415612a8a576040517f08c379a0000000000000000000000000000000000000000000000000000000008152600401612a8190614cf7565b60405180910390fd5b612a938161242c565b15612ad3576040517f08c379a0000000000000000000000000000000000000000000000000000000008152600401612aca90614d63565b60405180910390fd5b612adf60008383612fb0565b6001600360008473ffffffffffffffffffffffffffffffffffffffff1673ffffffffffffffffffffffffffffffffffffffff1681526020019081526020016000206000828254612b2f9190613ef4565b92505081905550816002600083815260200190815260200160002060006101000a81548173ffffffffffffffffffffffffffffffffffffffff021916908373ffffffffffffffffffffffffffffffffffffffff160217905550808273ffffffffffffffffffffffffffffffffffffffff16600073ffffffffffffffffffffffffffffffffffffffff167fddf252ad1be2c89b69c2b068fc378daa952ba7f163c4a11628f55a4df523b3ef60405160405180910390a4612bf060008383612fb5565b5050565b8173ffffffffffffffffffffffffffffffffffffffff168373ffffffffffffffffffffffffffffffffffffffff161415612c63576040517f08c379a0000000000000000000000000000000000000000000000000000000008152600401612c5a90614dcf565b60405180910390fd5b80600560008573ffffffffffffffffffffffffffffffffffffffff1673ffffffffffffffffffffffffffffffffffffffff16815260200190815260200160002060008473ffffffffffffffffffffffffffffffffffffffff1673ffffffffffffffffffffffffffffffffffffffff16815260200190815260200160002060006101000a81548160ff0219169083151502179055508173ffffffffffffffffffffffffffffffffffffffff168373ffffffffffffffffffffffffffffffffffffffff167f17307eab39ab6107e8899845ad3d59bd9653f200f220920489ca2b5937696c3183604051612d549190613328565b60405180910390a3505050565b612d6c84848461265b565b612d7884848484612fba565b612db7576040517f08c379a0000000000000000000000000000000000000000000000000000000008152600401612dae90614e61565b60405180910390fd5b50505050565b606060078054612dcc90613ca9565b80601f0160208091040260200160405190810160405280929190818152602001828054612df890613ca9565b8015612e455780601f10612e1a57610100808354040283529160200191612e45565b820191906000526020600020905b815481529060010190602001808311612e2857829003601f168201915b5050505050905090565b60606000821415612e97576040518060400160405280600181526020017f30000000000000000000000000000000000000000000000000000000000000008152509050612fab565b600082905060005b60008214612ec9578080612eb290613f79565b915050600a82612ec29190614eb0565b9150612e9f565b60008167ffffffffffffffff811115612ee557612ee46136ab565b5b6040519080825280601f01601f191660200182016040528015612f175781602001600182028036833780820191505090505b5090505b60008514612fa457600182612f309190613ec0565b9150600a85612f3f9190614ee1565b6030612f4b9190613ef4565b60f81b818381518110612f6157612f60613f4a565b5b60200101907effffffffffffffffffffffffffffffffffffffffffffffffffffffffffffff1916908160001a905350600a85612f9d9190614eb0565b9450612f1b565b8093505050505b919050565b505050565b505050565b6000612fdb8473ffffffffffffffffffffffffffffffffffffffff16613151565b15613144578373ffffffffffffffffffffffffffffffffffffffff1663150b7a02613004612498565b8786866040518563ffffffff1660e01b81526004016130269493929190614f67565b602060405180830381600087803b15801561304057600080fd5b505af192505050801561307157506040513d601f19601f8201168201806040525081019061306e9190614fc8565b60015b6130f4573d80600081146130a1576040519150601f19603f3d011682016040523d82523d6000602084013e6130a6565b606091505b506000815114156130ec576040517f08c379a00000000000000000000000000000000000000000000000000000000081526004016130e390614e61565b60405180910390fd5b805181602001fd5b63150b7a0260e01b7bffffffffffffffffffffffffffffffffffffffffffffffffffffffff1916817bffffffffffffffffffffffffffffffffffffffffffffffffffffffff191614915050613149565b600190505b949350505050565b6000808273ffffffffffffffffffffffffffffffffffffffff163b119050919050565b6040518060a0016040528060008152602001600073ffffffffffffffffffffffffffffffffffffffff168152602001600073ffffffffffffffffffffffffffffffffffffffff168152602001600081526020016000151581525090565b8280546131dd90613ca9565b90600052602060002090601f0160209004810192826131ff5760008555613246565b82601f1061321857805160ff1916838001178555613246565b82800160010185558215613246579182015b8281111561324557825182559160200191906001019061322a565b5b5090506132539190613257565b5090565b5b80821115613270576000816000905550600101613258565b5090565b6000604051905090565b600080fd5b600080fd5b60007fffffffff0000000000000000000000000000000000000000000000000000000082169050919050565b6132bd81613288565b81146132c857600080fd5b50565b6000813590506132da816132b4565b92915050565b6000602082840312156132f6576132f561327e565b5b6000613304848285016132cb565b91505092915050565b60008115159050919050565b6133228161330d565b82525050565b600060208201905061333d6000830184613319565b92915050565b600081519050919050565b600082825260208201905092915050565b60005b8381101561337d578082015181840152602081019050613362565b8381111561338c576000848401525b50505050565b6000601f19601f8301169050919050565b60006133ae82613343565b6133b8818561334e565b93506133c881856020860161335f565b6133d181613392565b840191505092915050565b600060208201905081810360008301526133f681846133a3565b905092915050565b6000819050919050565b613411816133fe565b811461341c57600080fd5b50565b60008135905061342e81613408565b92915050565b60006020828403121561344a5761344961327e565b5b60006134588482850161341f565b91505092915050565b600073ffffffffffffffffffffffffffffffffffffffff82169050919050565b600061348c82613461565b9050919050565b61349c81613481565b82525050565b60006020820190506134b76000830184613493565b92915050565b6134c681613481565b81146134d157600080fd5b50565b6000813590506134e3816134bd565b92915050565b60008060408385031215613500576134ff61327e565b5b600061350e858286016134d4565b925050602061351f8582860161341f565b9150509250929050565b600081519050919050565b600082825260208201905092915050565b6000819050602082019050919050565b61355e816133fe565b82525050565b600061356f82613461565b9050919050565b61357f81613564565b82525050565b61358e8161330d565b82525050565b60a0820160008201516135aa6000850182613555565b5060208201516135bd6020850182613576565b5060408201516135d06040850182613576565b5060608201516135e36060850182613555565b5060808201516135f66080850182613585565b50505050565b60006136088383613594565b60a08301905092915050565b6000602082019050919050565b600061362c82613529565b6136368185613534565b935061364183613545565b8060005b8381101561367257815161365988826135fc565b975061366483613614565b925050600181019050613645565b5085935050505092915050565b600060208201905081810360008301526136998184613621565b905092915050565b600080fd5b600080fd5b7f4e487b7100000000000000000000000000000000000000000000000000000000600052604160045260246000fd5b6136e382613392565b810181811067ffffffffffffffff82111715613702576137016136ab565b5b80604052505050565b6000613715613274565b905061372182826136da565b919050565b600067ffffffffffffffff821115613741576137406136ab565b5b61374a82613392565b9050602081019050919050565b82818337600083830152505050565b600061377961377484613726565b61370b565b905082815260208101848484011115613795576137946136a6565b5b6137a0848285613757565b509392505050565b600082601f8301126137bd576137bc6136a1565b5b81356137cd848260208601613766565b91505092915050565b6000819050919050565b6137e9816137d6565b81146137f457600080fd5b50565b600081359050613806816137e0565b92915050565b60008060008060008060c087890312156138295761382861327e565b5b600061383789828a0161341f565b965050602087013567ffffffffffffffff81111561385857613857613283565b5b61386489828a016137a8565b955050604061387589828a0161341f565b945050606061388689828a0161341f565b935050608061389789828a0161341f565b92505060a06138a889828a016137f7565b9150509295509295509295565b6138be816133fe565b82525050565b60006020820190506138d960008301846138b5565b92915050565b6000806000606084860312156138f8576138f761327e565b5b6000613906868287016134d4565b9350506020613917868287016134d4565b92505060406139288682870161341f565b9150509250925092565b60008060006060848603121561394b5761394a61327e565b5b60006139598682870161341f565b935050602061396a8682870161341f565b925050604061397b8682870161341f565b9150509250925092565b60008060006060848603121561399e5761399d61327e565b5b60006139ac8682870161341f565b93505060206139bd8682870161341f565b925050604084013567ffffffffffffffff8111156139de576139dd613283565b5b6139ea868287016137a8565b9150509250925092565b600060208284031215613a0a57613a0961327e565b5b600082013567ffffffffffffffff811115613a2857613a27613283565b5b613a34848285016137a8565b91505092915050565b600060208284031215613a5357613a5261327e565b5b6000613a61848285016134d4565b91505092915050565b613a738161330d565b8114613a7e57600080fd5b50565b600081359050613a9081613a6a565b92915050565b60008060408385031215613aad57613aac61327e565b5b6000613abb858286016134d4565b9250506020613acc85828601613a81565b9150509250929050565b600067ffffffffffffffff821115613af157613af06136ab565b5b613afa82613392565b9050602081019050919050565b6000613b1a613b1584613ad6565b61370b565b905082815260208101848484011115613b3657613b356136a6565b5b613b41848285613757565b509392505050565b600082601f830112613b5e57613b5d6136a1565b5b8135613b6e848260208601613b07565b91505092915050565b60008060008060808587031215613b9157613b9061327e565b5b6000613b9f878288016134d4565b9450506020613bb0878288016134d4565b9350506040613bc18782880161341f565b925050606085013567ffffffffffffffff811115613be257613be1613283565b5b613bee87828801613b49565b91505092959194509250565b60008060408385031215613c1157613c1061327e565b5b6000613c1f8582860161341f565b9250506020613c308582860161341f565b9150509250929050565b60008060408385031215613c5157613c5061327e565b5b6000613c5f858286016134d4565b9250506020613c70858286016134d4565b9150509250929050565b7f4e487b7100000000000000000000000000000000000000000000000000000000600052602260045260246000fd5b60006002820490506001821680613cc157607f821691505b60208210811415613cd557613cd4613c7a565b5b50919050565b7f4552433732313a20617070726f76656420717565727920666f72206e6f6e657860008201527f697374656e7420746f6b656e0000000000000000000000000000000000000000602082015250565b6000613d37602c8361334e565b9150613d4282613cdb565b604082019050919050565b60006020820190508181036000830152613d6681613d2a565b9050919050565b7f4552433732313a20617070726f76616c20746f2063757272656e74206f776e6560008201527f7200000000000000000000000000000000000000000000000000000000000000602082015250565b6000613dc960218361334e565b9150613dd482613d6d565b604082019050919050565b60006020820190508181036000830152613df881613dbc565b9050919050565b7f4552433732313a20617070726f76652063616c6c6572206973206e6f74206f7760008201527f6e6572206e6f7220617070726f76656420666f7220616c6c0000000000000000602082015250565b6000613e5b60388361334e565b9150613e6682613dff565b604082019050919050565b60006020820190508181036000830152613e8a81613e4e565b9050919050565b7f4e487b7100000000000000000000000000000000000000000000000000000000600052601160045260246000fd5b6000613ecb826133fe565b9150613ed6836133fe565b925082821015613ee957613ee8613e91565b5b828203905092915050565b6000613eff826133fe565b9150613f0a836133fe565b9250827fffffffffffffffffffffffffffffffffffffffffffffffffffffffffffffffff03821115613f3f57613f3e613e91565b5b828201905092915050565b7f4e487b7100000000000000000000000000000000000000000000000000000000600052603260045260246000fd5b6000613f84826133fe565b91507fffffffffffffffffffffffffffffffffffffffffffffffffffffffffffffffff821415613fb757613fb6613e91565b5b600182019050919050565b7f5072696365206d757374206265206174206c6561737420312077656900000000600082015250565b6000613ff8601c8361334e565b915061400382613fc2565b602082019050919050565b6000602082019050818103600083015261402781613feb565b9050919050565b614037816137d6565b82525050565b60008190508160005260206000209050919050565b6000815461405f81613ca9565b614069818661334e565b945060018216600081146140845760018114614096576140c9565b60ff19831686526020860193506140c9565b61409f8561403d565b60005b838110156140c1578154818901526001820191506020810190506140a2565b808801955050505b50505092915050565b6000610140820190506140e8600083018d6138b5565b6140f5602083018c6138b5565b8181036040830152614107818b6133a3565b9050614116606083018a6138b5565b61412360808301896138b5565b61413060a08301886138b5565b61413d60c083018761402e565b61414a60e083018661402e565b81810361010083015261415d8185614052565b905061416d6101208301846138b5565b9b9a5050505050505050505050565b7f4552433732313a207472616e736665722063616c6c6572206973206e6f74206f60008201527f776e6572206e6f7220617070726f766564000000000000000000000000000000602082015250565b60006141d860318361334e565b91506141e38261417c565b604082019050919050565b60006020820190508181036000830152614207816141cb565b9050919050565b7f4e6f742065786973747300000000000000000000000000000000000000000000600082015250565b6000614244600a8361334e565b915061424f8261420e565b602082019050919050565b6000602082019050818103600083015261427381614237565b9050919050565b600060608201905061428f60008301866138b5565b61429c60208301856138b5565b6142a960408301846138b5565b949350505050565b600060c0820190506142c66000830189613493565b6142d360208301886138b5565b6142e060408301876138b5565b6142ed60608301866138b5565b81810360808301526142ff81856133a3565b905061430e60a08301846138b5565b979650505050505050565b7f5469636b65742074797065206e6f742065787369740000000000000000000000600082015250565b600061434f60158361334e565b915061435a82614319565b602082019050919050565b6000602082019050818103600083015261437e81614342565b9050919050565b7f4e6f7420636f727265637420616d6f756e74206f66206d6f6e65790000000000600082015250565b60006143bb601b8361334e565b91506143c682614385565b602082019050919050565b600060208201905081810360008301526143ea816143ae565b9050919050565b7f4e6f7420696e2073656c6c696e672074696d6500000000000000000000000000600082015250565b600061442760138361334e565b9150614432826143f1565b602082019050919050565b600060208201905081810360008301526144568161441a565b9050919050565b7f4e6f207469636b6574206c656674000000000000000000000000000000000000600082015250565b6000614493600e8361334e565b915061449e8261445d565b602082019050919050565b600060208201905081810360008301526144c281614486565b9050919050565b60006144d4826137d6565b91507f800000000000000000000000000000000000000000000000000000000000000082141561450757614506613e91565b5b600182039050919050565b600060a08201905061452760008301886138b5565b61453460208301876138b5565b6145416040830186613493565b81810360608301526145538185614052565b9050614562608083018461402e565b9695505050505050565b7f4f776e61626c653a2063616c6c6572206973206e6f7420746865206f776e6572600082015250565b60006145a260208361334e565b91506145ad8261456c565b602082019050919050565b600060208201905081810360008301526145d181614595565b9050919050565b7f4552433732313a206f776e657220717565727920666f72206e6f6e657869737460008201527f656e7420746f6b656e0000000000000000000000000000000000000000000000602082015250565b600061463460298361334e565b915061463f826145d8565b604082019050919050565b6000602082019050818103600083015261466381614627565b9050919050565b7f4552433732313a2062616c616e636520717565727920666f7220746865207a6560008201527f726f206164647265737300000000000000000000000000000000000000000000602082015250565b60006146c6602a8361334e565b91506146d18261466a565b604082019050919050565b600060208201905081810360008301526146f5816146b9565b9050919050565b7f506c65617365207375626d6974207468652061736b696e67207072696365206960008201527f6e206f7264657220746f20636f6d706c65746520746865207075726368617365602082015250565b600061475860408361334e565b9150614763826146fc565b604082019050919050565b600060208201905081810360008301526147878161474b565b9050919050565b7f4552433732314d657461646174613a2055524920717565727920666f72206e6f60008201527f6e6578697374656e7420746f6b656e0000000000000000000000000000000000602082015250565b60006147ea602f8361334e565b91506147f58261478e565b604082019050919050565b60006020820190508181036000830152614819816147dd565b9050919050565b600081905092915050565b600061483682613343565b6148408185614820565b935061485081856020860161335f565b80840191505092915050565b6000614868828561482b565b9150614874828461482b565b91508190509392505050565b7f4f6e6c79206974656d206f776e65722063616e20706572666f726d207468697360008201527f206f7065726174696f6e00000000000000000000000000000000000000000000602082015250565b60006148dc602a8361334e565b91506148e782614880565b604082019050919050565b6000602082019050818103600083015261490b816148cf565b9050919050565b7f5072696365206d75737420626520657175616c20746f206c697374696e67207060008201527f7269636500000000000000000000000000000000000000000000000000000000602082015250565b600061496e60248361334e565b915061497982614912565b604082019050919050565b6000602082019050818103600083015261499d81614961565b9050919050565b600060a0820190506149b96000830188613493565b6149c66020830187613493565b6149d360408301866138b5565b6149e06060830185613319565b6149ed60808301846138b5565b9695505050505050565b7f4f776e61626c653a206e6577206f776e657220697320746865207a65726f206160008201527f6464726573730000000000000000000000000000000000000000000000000000602082015250565b6000614a5360268361334e565b9150614a5e826149f7565b604082019050919050565b60006020820190508181036000830152614a8281614a46565b9050919050565b7f4552433732313a206f70657261746f7220717565727920666f72206e6f6e657860008201527f697374656e7420746f6b656e0000000000000000000000000000000000000000602082015250565b6000614ae5602c8361334e565b9150614af082614a89565b604082019050919050565b60006020820190508181036000830152614b1481614ad8565b9050919050565b7f4552433732313a207472616e736665722066726f6d20696e636f72726563742060008201527f6f776e6572000000000000000000000000000000000000000000000000000000602082015250565b6000614b7760258361334e565b9150614b8282614b1b565b604082019050919050565b60006020820190508181036000830152614ba681614b6a565b9050919050565b7f4552433732313a207472616e7366657220746f20746865207a65726f2061646460008201527f7265737300000000000000000000000000000000000000000000000000000000602082015250565b6000614c0960248361334e565b9150614c1482614bad565b604082019050919050565b60006020820190508181036000830152614c3881614bfc565b9050919050565b7f4861766520746f206265206f6e776572206f6620746f6b656e00000000000000600082015250565b6000614c7560198361334e565b9150614c8082614c3f565b602082019050919050565b60006020820190508181036000830152614ca481614c68565b9050919050565b7f4552433732313a206d696e7420746f20746865207a65726f2061646472657373600082015250565b6000614ce160208361334e565b9150614cec82614cab565b602082019050919050565b60006020820190508181036000830152614d1081614cd4565b9050919050565b7f4552433732313a20746f6b656e20616c7265616479206d696e74656400000000600082015250565b6000614d4d601c8361334e565b9150614d5882614d17565b602082019050919050565b60006020820190508181036000830152614d7c81614d40565b9050919050565b7f4552433732313a20617070726f766520746f2063616c6c657200000000000000600082015250565b6000614db960198361334e565b9150614dc482614d83565b602082019050919050565b60006020820190508181036000830152614de881614dac565b9050919050565b7f4552433732313a207472616e7366657220746f206e6f6e20455243373231526560008201527f63656976657220696d706c656d656e7465720000000000000000000000000000602082015250565b6000614e4b60328361334e565b9150614e5682614def565b604082019050919050565b60006020820190508181036000830152614e7a81614e3e565b9050919050565b7f4e487b7100000000000000000000000000000000000000000000000000000000600052601260045260246000fd5b6000614ebb826133fe565b9150614ec6836133fe565b925082614ed657614ed5614e81565b5b828204905092915050565b6000614eec826133fe565b9150614ef7836133fe565b925082614f0757614f06614e81565b5b828206905092915050565b600081519050919050565b600082825260208201905092915050565b6000614f3982614f12565b614f438185614f1d565b9350614f5381856020860161335f565b614f5c81613392565b840191505092915050565b6000608082019050614f7c6000830187613493565b614f896020830186613493565b614f9660408301856138b5565b8181036060830152614fa88184614f2e565b905095945050505050565b600081519050614fc2816132b4565b92915050565b600060208284031215614fde57614fdd61327e565b5b6000614fec84828501614fb3565b9150509291505056fea2646970667358221220b95d29311cd9d281d8864b8362d014d208eb215c4be2bdc1451beea1a833805d64736f6c63430008080033687474703a2f2f6c6f63616c686f73743a353030302f6576656e742d7469636b65742f646174612f",
  "devdoc": {
    "kind": "dev",
    "methods": {
      "approve(address,uint256)": {
        "details": "See {IERC721-approve}."
      },
      "balanceOf(address)": {
        "details": "See {IERC721-balanceOf}."
      },
      "getApproved(uint256)": {
        "details": "See {IERC721-getApproved}."
      },
      "isApprovedForAll(address,address)": {
        "details": "See {IERC721-isApprovedForAll}."
      },
      "name()": {
        "details": "See {IERC721Metadata-name}."
      },
      "owner()": {
        "details": "Returns the address of the current owner."
      },
      "ownerOf(uint256)": {
        "details": "See {IERC721-ownerOf}."
      },
      "renounceOwnership()": {
        "details": "Leaves the contract without owner. It will not be possible to call `onlyOwner` functions anymore. Can only be called by the current owner. NOTE: Renouncing ownership will leave the contract without an owner, thereby removing any functionality that is only available to the owner."
      },
      "safeTransferFrom(address,address,uint256)": {
        "details": "See {IERC721-safeTransferFrom}."
      },
      "safeTransferFrom(address,address,uint256,bytes)": {
        "details": "See {IERC721-safeTransferFrom}."
      },
      "setApprovalForAll(address,bool)": {
        "details": "See {IERC721-setApprovalForAll}."
      },
      "supportsInterface(bytes4)": {
        "details": "See {IERC165-supportsInterface}."
      },
      "symbol()": {
        "details": "See {IERC721Metadata-symbol}."
      },
      "tokenURI(uint256)": {
        "details": "See {IERC721Metadata-tokenURI}."
      },
      "transferFrom(address,address,uint256)": {
        "details": "See {IERC721-transferFrom}."
      },
      "transferOwnership(address)": {
        "details": "Transfers ownership of the contract to a new account (`newOwner`). Can only be called by the current owner."
      }
    },
    "version": 1
  },
  "userdoc": {
    "kind": "user",
    "methods": {},
    "version": 1
  },
  "storageLayout": {
    "storage": [
      {
        "astId": 130,
        "contract": "contracts/NFTTicketMarketplace.sol:NFTTicketMarketplace",
        "label": "_name",
        "offset": 0,
        "slot": "0",
        "type": "t_string_storage"
      },
      {
        "astId": 132,
        "contract": "contracts/NFTTicketMarketplace.sol:NFTTicketMarketplace",
        "label": "_symbol",
        "offset": 0,
        "slot": "1",
        "type": "t_string_storage"
      },
      {
        "astId": 136,
        "contract": "contracts/NFTTicketMarketplace.sol:NFTTicketMarketplace",
        "label": "_owners",
        "offset": 0,
        "slot": "2",
        "type": "t_mapping(t_uint256,t_address)"
      },
      {
        "astId": 140,
        "contract": "contracts/NFTTicketMarketplace.sol:NFTTicketMarketplace",
        "label": "_balances",
        "offset": 0,
        "slot": "3",
        "type": "t_mapping(t_address,t_uint256)"
      },
      {
        "astId": 144,
        "contract": "contracts/NFTTicketMarketplace.sol:NFTTicketMarketplace",
        "label": "_tokenApprovals",
        "offset": 0,
        "slot": "4",
        "type": "t_mapping(t_uint256,t_address)"
      },
      {
        "astId": 150,
        "contract": "contracts/NFTTicketMarketplace.sol:NFTTicketMarketplace",
        "label": "_operatorApprovals",
        "offset": 0,
        "slot": "5",
        "type": "t_mapping(t_address,t_mapping(t_address,t_bool))"
      },
      {
        "astId": 7,
        "contract": "contracts/NFTTicketMarketplace.sol:NFTTicketMarketplace",
        "label": "_owner",
        "offset": 0,
        "slot": "6",
        "type": "t_address"
      },
      {
        "astId": 1902,
        "contract": "contracts/NFTTicketMarketplace.sol:NFTTicketMarketplace",
        "label": "baseURI",
        "offset": 0,
        "slot": "7",
        "type": "t_string_storage"
      },
      {
        "astId": 2022,
        "contract": "contracts/NFTTicketMarketplace.sol:NFTTicketMarketplace",
        "label": "_tokenIds",
        "offset": 0,
        "slot": "8",
        "type": "t_struct(Counter)1582_storage"
      },
      {
        "astId": 2025,
        "contract": "contracts/NFTTicketMarketplace.sol:NFTTicketMarketplace",
        "label": "_eventIds",
        "offset": 0,
        "slot": "9",
        "type": "t_struct(Counter)1582_storage"
      },
      {
        "astId": 2028,
        "contract": "contracts/NFTTicketMarketplace.sol:NFTTicketMarketplace",
        "label": "_typeTicketIds",
        "offset": 0,
        "slot": "10",
        "type": "t_struct(Counter)1582_storage"
      },
      {
        "astId": 2031,
        "contract": "contracts/NFTTicketMarketplace.sol:NFTTicketMarketplace",
        "label": "_itemsSold",
        "offset": 0,
        "slot": "11",
        "type": "t_struct(Counter)1582_storage"
      },
      {
        "astId": 2034,
        "contract": "contracts/NFTTicketMarketplace.sol:NFTTicketMarketplace",
        "label": "_marketIds",
        "offset": 0,
        "slot": "12",
        "type": "t_struct(Counter)1582_storage"
      },
      {
        "astId": 2037,
        "contract": "contracts/NFTTicketMarketplace.sol:NFTTicketMarketplace",
        "label": "listingPrice",
        "offset": 0,
        "slot": "13",
        "type": "t_uint256"
      },
      {
        "astId": 2042,
        "contract": "contracts/NFTTicketMarketplace.sol:NFTTicketMarketplace",
        "label": "idToMarketItem",
        "offset": 0,
        "slot": "14",
        "type": "t_mapping(t_uint256,t_struct(MarketItem)2067_storage)"
      },
      {
        "astId": 2047,
        "contract": "contracts/NFTTicketMarketplace.sol:NFTTicketMarketplace",
        "label": "idToEvent",
        "offset": 0,
        "slot": "15",
        "type": "t_mapping(t_uint256,t_struct(Event)1936_storage)"
      },
      {
        "astId": 2052,
        "contract": "contracts/NFTTicketMarketplace.sol:NFTTicketMarketplace",
        "label": "idToTicketType",
        "offset": 0,
        "slot": "16",
        "type": "t_mapping(t_uint256,t_struct(TicketType)1981_storage)"
      },
      {
        "astId": 2056,
        "contract": "contracts/NFTTicketMarketplace.sol:NFTTicketMarketplace",
        "label": "idTokenToIdTicketType",
        "offset": 0,
        "slot": "17",
        "type": "t_mapping(t_uint256,t_uint256)"
      }
    ],
    "types": {
      "t_address": {
        "encoding": "inplace",
        "label": "address",
        "numberOfBytes": "20"
      },
      "t_address_payable": {
        "encoding": "inplace",
        "label": "address payable",
        "numberOfBytes": "20"
      },
      "t_bool": {
        "encoding": "inplace",
        "label": "bool",
        "numberOfBytes": "1"
      },
      "t_int256": {
        "encoding": "inplace",
        "label": "int256",
        "numberOfBytes": "32"
      },
      "t_mapping(t_address,t_bool)": {
        "encoding": "mapping",
        "key": "t_address",
        "label": "mapping(address => bool)",
        "numberOfBytes": "32",
        "value": "t_bool"
      },
      "t_mapping(t_address,t_mapping(t_address,t_bool))": {
        "encoding": "mapping",
        "key": "t_address",
        "label": "mapping(address => mapping(address => bool))",
        "numberOfBytes": "32",
        "value": "t_mapping(t_address,t_bool)"
      },
      "t_mapping(t_address,t_uint256)": {
        "encoding": "mapping",
        "key": "t_address",
        "label": "mapping(address => uint256)",
        "numberOfBytes": "32",
        "value": "t_uint256"
      },
      "t_mapping(t_uint256,t_address)": {
        "encoding": "mapping",
        "key": "t_uint256",
        "label": "mapping(uint256 => address)",
        "numberOfBytes": "32",
        "value": "t_address"
      },
      "t_mapping(t_uint256,t_struct(Event)1936_storage)": {
        "encoding": "mapping",
        "key": "t_uint256",
        "label": "mapping(uint256 => struct NFTTicketMarketplace.Event)",
        "numberOfBytes": "32",
        "value": "t_struct(Event)1936_storage"
      },
      "t_mapping(t_uint256,t_struct(MarketItem)2067_storage)": {
        "encoding": "mapping",
        "key": "t_uint256",
        "label": "mapping(uint256 => struct NFTTicketMarketplace.MarketItem)",
        "numberOfBytes": "32",
        "value": "t_struct(MarketItem)2067_storage"
      },
      "t_mapping(t_uint256,t_struct(TicketType)1981_storage)": {
        "encoding": "mapping",
        "key": "t_uint256",
        "label": "mapping(uint256 => struct NFTTicketMarketplace.TicketType)",
        "numberOfBytes": "32",
        "value": "t_struct(TicketType)1981_storage"
      },
      "t_mapping(t_uint256,t_uint256)": {
        "encoding": "mapping",
        "key": "t_uint256",
        "label": "mapping(uint256 => uint256)",
        "numberOfBytes": "32",
        "value": "t_uint256"
      },
      "t_string_storage": {
        "encoding": "bytes",
        "label": "string",
        "numberOfBytes": "32"
      },
      "t_struct(Counter)1582_storage": {
        "encoding": "inplace",
        "label": "struct Counters.Counter",
        "members": [
          {
            "astId": 1581,
            "contract": "contracts/NFTTicketMarketplace.sol:NFTTicketMarketplace",
            "label": "_value",
            "offset": 0,
            "slot": "0",
            "type": "t_uint256"
          }
        ],
        "numberOfBytes": "32"
      },
      "t_struct(Event)1936_storage": {
        "encoding": "inplace",
        "label": "struct NFTTicketMarketplace.Event",
        "members": [
          {
            "astId": 1925,
            "contract": "contracts/NFTTicketMarketplace.sol:NFTTicketMarketplace",
            "label": "owner",
            "offset": 0,
            "slot": "0",
            "type": "t_address"
          },
          {
            "astId": 1927,
            "contract": "contracts/NFTTicketMarketplace.sol:NFTTicketMarketplace",
            "label": "createdTime",
            "offset": 0,
            "slot": "1",
            "type": "t_uint256"
          },
          {
            "astId": 1929,
            "contract": "contracts/NFTTicketMarketplace.sol:NFTTicketMarketplace",
            "label": "startTime",
            "offset": 0,
            "slot": "2",
            "type": "t_uint256"
          },
          {
            "astId": 1931,
            "contract": "contracts/NFTTicketMarketplace.sol:NFTTicketMarketplace",
            "label": "endTime",
            "offset": 0,
            "slot": "3",
            "type": "t_uint256"
          },
          {
            "astId": 1933,
            "contract": "contracts/NFTTicketMarketplace.sol:NFTTicketMarketplace",
            "label": "id",
            "offset": 0,
            "slot": "4",
            "type": "t_string_storage"
          },
          {
            "astId": 1935,
            "contract": "contracts/NFTTicketMarketplace.sol:NFTTicketMarketplace",
            "label": "exist",
            "offset": 0,
            "slot": "5",
            "type": "t_bool"
          }
        ],
        "numberOfBytes": "192"
      },
      "t_struct(MarketItem)2067_storage": {
        "encoding": "inplace",
        "label": "struct NFTTicketMarketplace.MarketItem",
        "members": [
          {
            "astId": 2058,
            "contract": "contracts/NFTTicketMarketplace.sol:NFTTicketMarketplace",
            "label": "tokenId",
            "offset": 0,
            "slot": "0",
            "type": "t_uint256"
          },
          {
            "astId": 2060,
            "contract": "contracts/NFTTicketMarketplace.sol:NFTTicketMarketplace",
            "label": "seller",
            "offset": 0,
            "slot": "1",
            "type": "t_address_payable"
          },
          {
            "astId": 2062,
            "contract": "contracts/NFTTicketMarketplace.sol:NFTTicketMarketplace",
            "label": "owner",
            "offset": 0,
            "slot": "2",
            "type": "t_address_payable"
          },
          {
            "astId": 2064,
            "contract": "contracts/NFTTicketMarketplace.sol:NFTTicketMarketplace",
            "label": "price",
            "offset": 0,
            "slot": "3",
            "type": "t_uint256"
          },
          {
            "astId": 2066,
            "contract": "contracts/NFTTicketMarketplace.sol:NFTTicketMarketplace",
            "label": "sold",
            "offset": 0,
            "slot": "4",
            "type": "t_bool"
          }
        ],
        "numberOfBytes": "160"
      },
      "t_struct(TicketType)1981_storage": {
        "encoding": "inplace",
        "label": "struct NFTTicketMarketplace.TicketType",
        "members": [
          {
            "astId": 1964,
            "contract": "contracts/NFTTicketMarketplace.sol:NFTTicketMarketplace",
            "label": "eventId",
            "offset": 0,
            "slot": "0",
            "type": "t_uint256"
          },
          {
            "astId": 1966,
            "contract": "contracts/NFTTicketMarketplace.sol:NFTTicketMarketplace",
            "label": "createdTime",
            "offset": 0,
            "slot": "1",
            "type": "t_uint256"
          },
          {
            "astId": 1968,
            "contract": "contracts/NFTTicketMarketplace.sol:NFTTicketMarketplace",
            "label": "id",
            "offset": 0,
            "slot": "2",
            "type": "t_string_storage"
          },
          {
            "astId": 1970,
            "contract": "contracts/NFTTicketMarketplace.sol:NFTTicketMarketplace",
            "label": "price",
            "offset": 0,
            "slot": "3",
            "type": "t_uint256"
          },
          {
            "astId": 1972,
            "contract": "contracts/NFTTicketMarketplace.sol:NFTTicketMarketplace",
            "label": "startSellingTime",
            "offset": 0,
            "slot": "4",
            "type": "t_uint256"
          },
          {
            "astId": 1974,
            "contract": "contracts/NFTTicketMarketplace.sol:NFTTicketMarketplace",
            "label": "endSellingTime",
            "offset": 0,
            "slot": "5",
            "type": "t_uint256"
          },
          {
            "astId": 1976,
            "contract": "contracts/NFTTicketMarketplace.sol:NFTTicketMarketplace",
            "label": "totalLimit",
            "offset": 0,
            "slot": "6",
            "type": "t_int256"
          },
          {
            "astId": 1978,
            "contract": "contracts/NFTTicketMarketplace.sol:NFTTicketMarketplace",
            "label": "currentLimit",
            "offset": 0,
            "slot": "7",
            "type": "t_int256"
          },
          {
            "astId": 1980,
            "contract": "contracts/NFTTicketMarketplace.sol:NFTTicketMarketplace",
            "label": "exist",
            "offset": 0,
            "slot": "8",
            "type": "t_bool"
          }
        ],
        "numberOfBytes": "288"
      },
      "t_uint256": {
        "encoding": "inplace",
        "label": "uint256",
        "numberOfBytes": "32"
      }
    }
  }
}