{
  "address": "0x5FbDB2315678afecb367f032d93F642f64180aa3",
  "abi": [
    {
      "inputs": [],
      "stateMutability": "nonpayable",
      "type": "constructor"
    },
    {
      "anonymous": false,
      "inputs": [
        {
          "indexed": true,
          "internalType": "address",
          "name": "owner",
          "type": "address"
        },
        {
          "indexed": true,
          "internalType": "address",
          "name": "approved",
          "type": "address"
        },
        {
          "indexed": true,
          "internalType": "uint256",
          "name": "tokenId",
          "type": "uint256"
        }
      ],
      "name": "Approval",
      "type": "event"
    },
    {
      "anonymous": false,
      "inputs": [
        {
          "indexed": true,
          "internalType": "address",
          "name": "owner",
          "type": "address"
        },
        {
          "indexed": true,
          "internalType": "address",
          "name": "operator",
          "type": "address"
        },
        {
          "indexed": false,
          "internalType": "bool",
          "name": "approved",
          "type": "bool"
        }
      ],
      "name": "ApprovalForAll",
      "type": "event"
    },
    {
      "anonymous": false,
      "inputs": [
        {
          "indexed": false,
          "internalType": "address",
          "name": "owner",
          "type": "address"
        },
        {
          "indexed": false,
          "internalType": "uint256",
          "name": "createdTime",
          "type": "uint256"
        },
        {
          "indexed": false,
          "internalType": "uint256",
          "name": "startTime",
          "type": "uint256"
        },
        {
          "indexed": false,
          "internalType": "uint256",
          "name": "endTime",
          "type": "uint256"
        },
        {
          "indexed": false,
          "internalType": "string",
          "name": "id",
          "type": "string"
        },
        {
          "indexed": false,
          "internalType": "uint256",
          "name": "onChainId",
          "type": "uint256"
        }
      ],
      "name": "EventCreated",
      "type": "event"
    },
    {
      "anonymous": false,
      "inputs": [
        {
          "indexed": false,
          "internalType": "uint256",
          "name": "id",
          "type": "uint256"
        }
      ],
      "name": "EventDeleted",
      "type": "event"
    },
    {
      "anonymous": false,
      "inputs": [
        {
          "indexed": false,
          "internalType": "uint256",
          "name": "id",
          "type": "uint256"
        },
        {
          "indexed": false,
          "internalType": "uint256",
          "name": "startTime",
          "type": "uint256"
        },
        {
          "indexed": false,
          "internalType": "uint256",
          "name": "endTime",
          "type": "uint256"
        }
      ],
      "name": "EventUpdated",
      "type": "event"
    },
    {
      "anonymous": false,
      "inputs": [
        {
          "indexed": true,
          "internalType": "uint256",
          "name": "tokenId",
          "type": "uint256"
        },
        {
          "indexed": false,
          "internalType": "address",
          "name": "seller",
          "type": "address"
        },
        {
          "indexed": false,
          "internalType": "address",
          "name": "owner",
          "type": "address"
        },
        {
          "indexed": false,
          "internalType": "uint256",
          "name": "price",
          "type": "uint256"
        },
        {
          "indexed": false,
          "internalType": "bool",
          "name": "sold",
          "type": "bool"
        }
      ],
      "name": "MarketItemCreated",
      "type": "event"
    },
    {
      "anonymous": false,
      "inputs": [
        {
          "indexed": true,
          "internalType": "address",
          "name": "previousOwner",
          "type": "address"
        },
        {
          "indexed": true,
          "internalType": "address",
          "name": "newOwner",
          "type": "address"
        }
      ],
      "name": "OwnershipTransferred",
      "type": "event"
    },
    {
      "anonymous": false,
      "inputs": [
        {
          "indexed": false,
          "internalType": "uint256",
          "name": "tokenId",
          "type": "uint256"
        },
        {
          "indexed": false,
          "internalType": "uint256",
          "name": "ticketTypeOnChainId",
          "type": "uint256"
        },
        {
          "indexed": false,
          "internalType": "address",
          "name": "ownerAddress",
          "type": "address"
        },
        {
          "indexed": false,
          "internalType": "string",
          "name": "ticketTypeId",
          "type": "string"
        },
        {
          "indexed": false,
          "internalType": "int256",
          "name": "limitCurrent",
          "type": "int256"
        }
      ],
      "name": "TicketSold",
      "type": "event"
    },
    {
      "anonymous": false,
      "inputs": [
        {
          "indexed": false,
          "internalType": "uint256",
          "name": "eventOnChainId",
          "type": "uint256"
        },
        {
          "indexed": false,
          "internalType": "uint256",
          "name": "createdTime",
          "type": "uint256"
        },
        {
          "indexed": false,
          "internalType": "string",
          "name": "id",
          "type": "string"
        },
        {
          "indexed": false,
          "internalType": "uint256",
          "name": "price",
          "type": "uint256"
        },
        {
          "indexed": false,
          "internalType": "uint256",
          "name": "startSellingTime",
          "type": "uint256"
        },
        {
          "indexed": false,
          "internalType": "uint256",
          "name": "endSellingTime",
          "type": "uint256"
        },
        {
          "indexed": false,
          "internalType": "int256",
          "name": "totalLimit",
          "type": "int256"
        },
        {
          "indexed": false,
          "internalType": "int256",
          "name": "currentLimit",
          "type": "int256"
        },
        {
          "indexed": false,
          "internalType": "string",
          "name": "eventId",
          "type": "string"
        },
        {
          "indexed": false,
          "internalType": "uint256",
          "name": "onChainId",
          "type": "uint256"
        }
      ],
      "name": "TicketTypeCreated",
      "type": "event"
    },
    {
      "anonymous": false,
      "inputs": [
        {
          "indexed": true,
          "internalType": "address",
          "name": "from",
          "type": "address"
        },
        {
          "indexed": true,
          "internalType": "address",
          "name": "to",
          "type": "address"
        },
        {
          "indexed": true,
          "internalType": "uint256",
          "name": "tokenId",
          "type": "uint256"
        }
      ],
      "name": "Transfer",
      "type": "event"
    },
    {
      "inputs": [
        {
          "internalType": "address",
          "name": "to",
          "type": "address"
        },
        {
          "internalType": "uint256",
          "name": "tokenId",
          "type": "uint256"
        }
      ],
      "name": "approve",
      "outputs": [],
      "stateMutability": "nonpayable",
      "type": "function"
    },
    {
      "inputs": [
        {
          "internalType": "address",
          "name": "owner",
          "type": "address"
        }
      ],
      "name": "balanceOf",
      "outputs": [
        {
          "internalType": "uint256",
          "name": "",
          "type": "uint256"
        }
      ],
      "stateMutability": "view",
      "type": "function"
    },
    {
      "inputs": [
        {
          "internalType": "uint256",
          "name": "startTime",
          "type": "uint256"
        },
        {
          "internalType": "uint256",
          "name": "endTime",
          "type": "uint256"
        },
        {
          "internalType": "string",
          "name": "id",
          "type": "string"
        }
      ],
      "name": "createEvent",
      "outputs": [],
      "stateMutability": "nonpayable",
      "type": "function"
    },
    {
      "inputs": [
        {
          "internalType": "uint256",
          "name": "tokenId",
          "type": "uint256"
        }
      ],
      "name": "createMarketSale",
      "outputs": [],
      "stateMutability": "payable",
      "type": "function"
    },
    {
      "inputs": [
        {
          "internalType": "uint256",
          "name": "eventId",
          "type": "uint256"
        },
        {
          "internalType": "string",
          "name": "id",
          "type": "string"
        },
        {
          "internalType": "uint256",
          "name": "price",
          "type": "uint256"
        },
        {
          "internalType": "uint256",
          "name": "startSellingTime",
          "type": "uint256"
        },
        {
          "internalType": "uint256",
          "name": "endSellingTime",
          "type": "uint256"
        },
        {
          "internalType": "int256",
          "name": "limit",
          "type": "int256"
        }
      ],
      "name": "createTicketType",
      "outputs": [],
      "stateMutability": "nonpayable",
      "type": "function"
    },
    {
      "inputs": [],
      "name": "createToken",
      "outputs": [
        {
          "internalType": "uint256",
          "name": "",
          "type": "uint256"
        }
      ],
      "stateMutability": "nonpayable",
      "type": "function"
    },
    {
      "inputs": [],
      "name": "fetchItemsListed",
      "outputs": [
        {
          "components": [
            {
              "internalType": "uint256",
              "name": "tokenId",
              "type": "uint256"
            },
            {
              "internalType": "address payable",
              "name": "seller",
              "type": "address"
            },
            {
              "internalType": "address payable",
              "name": "owner",
              "type": "address"
            },
            {
              "internalType": "uint256",
              "name": "price",
              "type": "uint256"
            },
            {
              "internalType": "bool",
              "name": "sold",
              "type": "bool"
            }
          ],
          "internalType": "struct NFTTicketMarketplace.MarketItem[]",
          "name": "",
          "type": "tuple[]"
        }
      ],
      "stateMutability": "view",
      "type": "function"
    },
    {
      "inputs": [],
      "name": "fetchMarketItems",
      "outputs": [
        {
          "components": [
            {
              "internalType": "uint256",
              "name": "tokenId",
              "type": "uint256"
            },
            {
              "internalType": "address payable",
              "name": "seller",
              "type": "address"
            },
            {
              "internalType": "address payable",
              "name": "owner",
              "type": "address"
            },
            {
              "internalType": "uint256",
              "name": "price",
              "type": "uint256"
            },
            {
              "internalType": "bool",
              "name": "sold",
              "type": "bool"
            }
          ],
          "internalType": "struct NFTTicketMarketplace.MarketItem[]",
          "name": "",
          "type": "tuple[]"
        }
      ],
      "stateMutability": "view",
      "type": "function"
    },
    {
      "inputs": [],
      "name": "fetchMyNFTs",
      "outputs": [
        {
          "components": [
            {
              "internalType": "uint256",
              "name": "tokenId",
              "type": "uint256"
            },
            {
              "internalType": "address payable",
              "name": "seller",
              "type": "address"
            },
            {
              "internalType": "address payable",
              "name": "owner",
              "type": "address"
            },
            {
              "internalType": "uint256",
              "name": "price",
              "type": "uint256"
            },
            {
              "internalType": "bool",
              "name": "sold",
              "type": "bool"
            }
          ],
          "internalType": "struct NFTTicketMarketplace.MarketItem[]",
          "name": "",
          "type": "tuple[]"
        }
      ],
      "stateMutability": "view",
      "type": "function"
    },
    {
      "inputs": [
        {
          "internalType": "uint256",
          "name": "tokenId",
          "type": "uint256"
        }
      ],
      "name": "getApproved",
      "outputs": [
        {
          "internalType": "address",
          "name": "",
          "type": "address"
        }
      ],
      "stateMutability": "view",
      "type": "function"
    },
    {
      "inputs": [],
      "name": "getListingPrice",
      "outputs": [
        {
          "internalType": "uint256",
          "name": "",
          "type": "uint256"
        }
      ],
      "stateMutability": "view",
      "type": "function"
    },
    {
      "inputs": [
        {
          "internalType": "address",
          "name": "owner",
          "type": "address"
        },
        {
          "internalType": "address",
          "name": "operator",
          "type": "address"
        }
      ],
      "name": "isApprovedForAll",
      "outputs": [
        {
          "internalType": "bool",
          "name": "",
          "type": "bool"
        }
      ],
      "stateMutability": "view",
      "type": "function"
    },
    {
      "inputs": [],
      "name": "name",
      "outputs": [
        {
          "internalType": "string",
          "name": "",
          "type": "string"
        }
      ],
      "stateMutability": "view",
      "type": "function"
    },
    {
      "inputs": [],
      "name": "owner",
      "outputs": [
        {
          "internalType": "address",
          "name": "",
          "type": "address"
        }
      ],
      "stateMutability": "view",
      "type": "function"
    },
    {
      "inputs": [
        {
          "internalType": "uint256",
          "name": "tokenId",
          "type": "uint256"
        }
      ],
      "name": "ownerOf",
      "outputs": [
        {
          "internalType": "address",
          "name": "",
          "type": "address"
        }
      ],
      "stateMutability": "view",
      "type": "function"
    },
    {
      "inputs": [
        {
          "internalType": "uint256",
          "name": "ticketTypeId",
          "type": "uint256"
        }
      ],
      "name": "payForTicket",
      "outputs": [
        {
          "internalType": "uint256",
          "name": "",
          "type": "uint256"
        }
      ],
      "stateMutability": "payable",
      "type": "function"
    },
    {
      "inputs": [],
      "name": "renounceOwnership",
      "outputs": [],
      "stateMutability": "nonpayable",
      "type": "function"
    },
    {
      "inputs": [
        {
          "internalType": "uint256",
          "name": "tokenId",
          "type": "uint256"
        },
        {
          "internalType": "uint256",
          "name": "price",
          "type": "uint256"
        }
      ],
      "name": "resellToken",
      "outputs": [],
      "stateMutability": "payable",
      "type": "function"
    },
    {
      "inputs": [
        {
          "internalType": "address",
          "name": "from",
          "type": "address"
        },
        {
          "internalType": "address",
          "name": "to",
          "type": "address"
        },
        {
          "internalType": "uint256",
          "name": "tokenId",
          "type": "uint256"
        }
      ],
      "name": "safeTransferFrom",
      "outputs": [],
      "stateMutability": "nonpayable",
      "type": "function"
    },
    {
      "inputs": [
        {
          "internalType": "address",
          "name": "from",
          "type": "address"
        },
        {
          "internalType": "address",
          "name": "to",
          "type": "address"
        },
        {
          "internalType": "uint256",
          "name": "tokenId",
          "type": "uint256"
        },
        {
          "internalType": "bytes",
          "name": "_data",
          "type": "bytes"
        }
      ],
      "name": "safeTransferFrom",
      "outputs": [],
      "stateMutability": "nonpayable",
      "type": "function"
    },
    {
      "inputs": [
        {
          "internalType": "address",
          "name": "operator",
          "type": "address"
        },
        {
          "internalType": "bool",
          "name": "approved",
          "type": "bool"
        }
      ],
      "name": "setApprovalForAll",
      "outputs": [],
      "stateMutability": "nonpayable",
      "type": "function"
    },
    {
      "inputs": [
        {
          "internalType": "string",
          "name": "uri",
          "type": "string"
        }
      ],
      "name": "setBaseURI",
      "outputs": [],
      "stateMutability": "nonpayable",
      "type": "function"
    },
    {
      "inputs": [
        {
          "internalType": "bytes4",
          "name": "interfaceId",
          "type": "bytes4"
        }
      ],
      "name": "supportsInterface",
      "outputs": [
        {
          "internalType": "bool",
          "name": "",
          "type": "bool"
        }
      ],
      "stateMutability": "view",
      "type": "function"
    },
    {
      "inputs": [],
      "name": "symbol",
      "outputs": [
        {
          "internalType": "string",
          "name": "",
          "type": "string"
        }
      ],
      "stateMutability": "view",
      "type": "function"
    },
    {
      "inputs": [
        {
          "internalType": "uint256",
          "name": "tokenId",
          "type": "uint256"
        }
      ],
      "name": "tokenURI",
      "outputs": [
        {
          "internalType": "string",
          "name": "",
          "type": "string"
        }
      ],
      "stateMutability": "view",
      "type": "function"
    },
    {
      "inputs": [
        {
          "internalType": "address",
          "name": "from",
          "type": "address"
        },
        {
          "internalType": "address",
          "name": "to",
          "type": "address"
        },
        {
          "internalType": "uint256",
          "name": "tokenId",
          "type": "uint256"
        }
      ],
      "name": "transferFrom",
      "outputs": [],
      "stateMutability": "nonpayable",
      "type": "function"
    },
    {
      "inputs": [
        {
          "internalType": "address",
          "name": "newOwner",
          "type": "address"
        }
      ],
      "name": "transferOwnership",
      "outputs": [],
      "stateMutability": "nonpayable",
      "type": "function"
    },
    {
      "inputs": [
        {
          "internalType": "uint256",
          "name": "eventId",
          "type": "uint256"
        },
        {
          "internalType": "uint256",
          "name": "startTime",
          "type": "uint256"
        },
        {
          "internalType": "uint256",
          "name": "endTime",
          "type": "uint256"
        }
      ],
      "name": "updateEvent",
      "outputs": [],
      "stateMutability": "nonpayable",
      "type": "function"
    },
    {
      "inputs": [
        {
          "internalType": "uint256",
          "name": "_listingPrice",
          "type": "uint256"
        }
      ],
      "name": "updateListingPrice",
      "outputs": [],
      "stateMutability": "payable",
      "type": "function"
    }
  ],
  "transactionHash": "0xdabc1901724ff3b43ae60cdfc274ea5e26d27379dec07d53d2867147d2a970d3",
  "args": [],
  "numDeployments": 1,
  "solcInputHash": "567fb42062f343eb321c6b403069ca06",
  "bytecode": "0x60806040526040518060600160405280602881526020016200534f602891396007908051906020019062000035929190620001e3565b506658d15e17628000600c553480156200004e57600080fd5b506040518060400160405280600d81526020017f5469636b657420546f6b656e73000000000000000000000000000000000000008152506040518060400160405280600481526020017f54434b54000000000000000000000000000000000000000000000000000000008152508160009080519060200190620000d3929190620001e3565b508060019080519060200190620000ec929190620001e3565b5050506200010f620001036200011560201b60201c565b6200011d60201b60201c565b620002f8565b600033905090565b6000600660009054906101000a900473ffffffffffffffffffffffffffffffffffffffff16905081600660006101000a81548173ffffffffffffffffffffffffffffffffffffffff021916908373ffffffffffffffffffffffffffffffffffffffff1602179055508173ffffffffffffffffffffffffffffffffffffffff168173ffffffffffffffffffffffffffffffffffffffff167f8be0079c531659141344cd1fd0a4f28419497f9722a3daafe3b4186f6b6457e060405160405180910390a35050565b828054620001f190620002c2565b90600052602060002090601f01602090048101928262000215576000855562000261565b82601f106200023057805160ff191683800117855562000261565b8280016001018555821562000261579182015b828111156200026057825182559160200191906001019062000243565b5b50905062000270919062000274565b5090565b5b808211156200028f57600081600090555060010162000275565b5090565b7f4e487b7100000000000000000000000000000000000000000000000000000000600052602260045260246000fd5b60006002820490506001821680620002db57607f821691505b60208210811415620002f257620002f162000293565b5b50919050565b61504780620003086000396000f3fe6080604052600436106101c25760003560e01c806355f804b3116100f7578063a22cb46511610095578063c87b56dd11610064578063c87b56dd14610603578063e219fc7514610640578063e985e9c51461065c578063f2fde38b14610699576101c2565b8063a22cb46514610579578063ae677aa3146105a2578063b88d4fde146105be578063be9af536146105e7576101c2565b8063715018a6116100d1578063715018a6146104e15780638da5cb5b146104f857806395d89b41146105235780639cbf9e361461054e576101c2565b806355f804b31461043e5780636352211e1461046757806370a08231146104a4576101c2565b8063202e374011610164578063294e0d561161013e578063294e0d561461039157806342842e0e146103ba57806345f8fa80146103e35780634868cd631461040e576101c2565b8063202e37401461031457806323b872dd1461033f5780632529851014610368576101c2565b8063095ea7b3116101a0578063095ea7b31461026c5780630f08efe0146102955780630fbfe0e9146102c057806312e85585146102e9576101c2565b806301ffc9a7146101c757806306fdde0314610204578063081812fc1461022f575b600080fd5b3480156101d357600080fd5b506101ee60048036038101906101e991906132e3565b6106c2565b6040516101fb919061332b565b60405180910390f35b34801561021057600080fd5b506102196107a4565b60405161022691906133df565b60405180910390f35b34801561023b57600080fd5b5061025660048036038101906102519190613437565b610836565b60405161026391906134a5565b60405180910390f35b34801561027857600080fd5b50610293600480360381019061028e91906134ec565b6108bb565b005b3480156102a157600080fd5b506102aa6109d3565b6040516102b79190613682565b60405180910390f35b3480156102cc57600080fd5b506102e760048036038101906102e2919061380f565b610c3c565b005b3480156102f557600080fd5b506102fe610de1565b60405161030b91906138c7565b60405180910390f35b34801561032057600080fd5b50610329610deb565b6040516103369190613682565b60405180910390f35b34801561034b57600080fd5b50610366600480360381019061036191906138e2565b6110d9565b005b34801561037457600080fd5b5061038f600480360381019061038a9190613935565b611139565b005b34801561039d57600080fd5b506103b860048036038101906103b39190613988565b611219565b005b3480156103c657600080fd5b506103e160048036038101906103dc91906138e2565b611376565b005b3480156103ef57600080fd5b506103f8611396565b6040516104059190613682565b60405180910390f35b61042860048036038101906104239190613437565b611684565b60405161043591906138c7565b60405180910390f35b34801561044a57600080fd5b50610465600480360381019061046091906139f7565b6118b1565b005b34801561047357600080fd5b5061048e60048036038101906104899190613437565b611947565b60405161049b91906134a5565b60405180910390f35b3480156104b057600080fd5b506104cb60048036038101906104c69190613a40565b6119f9565b6040516104d891906138c7565b60405180910390f35b3480156104ed57600080fd5b506104f6611ab1565b005b34801561050457600080fd5b5061050d611b39565b60405161051a91906134a5565b60405180910390f35b34801561052f57600080fd5b50610538611b63565b60405161054591906133df565b60405180910390f35b34801561055a57600080fd5b50610563611bf5565b60405161057091906138c7565b60405180910390f35b34801561058557600080fd5b506105a0600480360381019061059b9190613a99565b611c20565b005b6105bc60048036038101906105b79190613437565b611c36565b005b3480156105ca57600080fd5b506105e560048036038101906105e09190613b7a565b611cbc565b005b61060160048036038101906105fc9190613437565b611d1e565b005b34801561060f57600080fd5b5061062a60048036038101906106259190613437565b611f41565b60405161063791906133df565b60405180910390f35b61065a60048036038101906106559190613bfd565b611fe8565b005b34801561066857600080fd5b50610683600480360381019061067e9190613c3d565b6121dd565b604051610690919061332b565b60405180910390f35b3480156106a557600080fd5b506106c060048036038101906106bb9190613a40565b612271565b005b60007f80ac58cd000000000000000000000000000000000000000000000000000000007bffffffffffffffffffffffffffffffffffffffffffffffffffffffff1916827bffffffffffffffffffffffffffffffffffffffffffffffffffffffff1916148061078d57507f5b5e139f000000000000000000000000000000000000000000000000000000007bffffffffffffffffffffffffffffffffffffffffffffffffffffffff1916827bffffffffffffffffffffffffffffffffffffffffffffffffffffffff1916145b8061079d575061079c82612369565b5b9050919050565b6060600080546107b390613cac565b80601f01602080910402602001604051908101604052809291908181526020018280546107df90613cac565b801561082c5780601f106108015761010080835404028352916020019161082c565b820191906000526020600020905b81548152906001019060200180831161080f57829003601f168201915b5050505050905090565b6000610841826123d3565b610880576040517f08c379a000000000000000000000000000000000000000000000000000000000815260040161087790613d50565b60405180910390fd5b6004600083815260200190815260200160002060009054906101000a900473ffffffffffffffffffffffffffffffffffffffff169050919050565b60006108c682611947565b90508073ffffffffffffffffffffffffffffffffffffffff168373ffffffffffffffffffffffffffffffffffffffff161415610937576040517f08c379a000000000000000000000000000000000000000000000000000000000815260040161092e90613de2565b60405180910390fd5b8073ffffffffffffffffffffffffffffffffffffffff1661095661243f565b73ffffffffffffffffffffffffffffffffffffffff16148061098557506109848161097f61243f565b6121dd565b5b6109c4576040517f08c379a00000000000000000000000000000000000000000000000000000000081526004016109bb90613e74565b60405180910390fd5b6109ce8383612447565b505050565b606060006109e16008612500565b905060006109ef600b612500565b6109f96008612500565b610a039190613ec3565b90506000808267ffffffffffffffff811115610a2257610a216136ae565b5b604051908082528060200260200182016040528015610a5b57816020015b610a48613177565b815260200190600190039081610a405790505b50905060005b84811015610c31573073ffffffffffffffffffffffffffffffffffffffff16600d6000600184610a919190613ef7565b815260200190815260200160002060020160009054906101000a900473ffffffffffffffffffffffffffffffffffffffff1673ffffffffffffffffffffffffffffffffffffffff161415610c1e576000600182610aee9190613ef7565b90506000600d60008381526020019081526020016000209050806040518060a0016040529081600082015481526020016001820160009054906101000a900473ffffffffffffffffffffffffffffffffffffffff1673ffffffffffffffffffffffffffffffffffffffff1673ffffffffffffffffffffffffffffffffffffffff1681526020016002820160009054906101000a900473ffffffffffffffffffffffffffffffffffffffff1673ffffffffffffffffffffffffffffffffffffffff1673ffffffffffffffffffffffffffffffffffffffff168152602001600382015481526020016004820160009054906101000a900460ff161515151581525050848681518110610c0157610c00613f4d565b5b6020026020010181905250600185610c199190613ef7565b945050505b8080610c2990613f7c565b915050610a61565b508094505050505090565b60008411610c7f576040517f08c379a0000000000000000000000000000000000000000000000000000000008152600401610c7690614011565b60405180910390fd5b610c89600a61250e565b6000610c95600a612500565b905060405180610120016040528088815260200142815260200187815260200186815260200185815260200184815260200183815260200183815260200160011515815250600f600083815260200190815260200160002060008201518160000155602082015181600101556040820151816002019080519060200190610d1d9291906131d4565b50606082015181600301556080820151816004015560a0820151816005015560c0820151816006015560e082015181600701556101008201518160080160006101000a81548160ff0219169083151502179055509050506000600e600089815260200190815260200160002090507f23e43aa87fb6cd6e0767623783aeb3c1c4aab2dd562879333c14e692a2a6d348884289898989898a896004018b604051610dcf9a999897969594939291906140d5565b60405180910390a15050505050505050565b6000600c54905090565b60606000610df96008612500565b905060008060005b83811015610ea2573373ffffffffffffffffffffffffffffffffffffffff16600d6000600184610e319190613ef7565b815260200190815260200160002060020160009054906101000a900473ffffffffffffffffffffffffffffffffffffffff1673ffffffffffffffffffffffffffffffffffffffff161415610e8f57600183610e8c9190613ef7565b92505b8080610e9a90613f7c565b915050610e01565b5060008267ffffffffffffffff811115610ebf57610ebe6136ae565b5b604051908082528060200260200182016040528015610ef857816020015b610ee5613177565b815260200190600190039081610edd5790505b50905060005b848110156110ce573373ffffffffffffffffffffffffffffffffffffffff16600d6000600184610f2e9190613ef7565b815260200190815260200160002060020160009054906101000a900473ffffffffffffffffffffffffffffffffffffffff1673ffffffffffffffffffffffffffffffffffffffff1614156110bb576000600182610f8b9190613ef7565b90506000600d60008381526020019081526020016000209050806040518060a0016040529081600082015481526020016001820160009054906101000a900473ffffffffffffffffffffffffffffffffffffffff1673ffffffffffffffffffffffffffffffffffffffff1673ffffffffffffffffffffffffffffffffffffffff1681526020016002820160009054906101000a900473ffffffffffffffffffffffffffffffffffffffff1673ffffffffffffffffffffffffffffffffffffffff1673ffffffffffffffffffffffffffffffffffffffff168152602001600382015481526020016004820160009054906101000a900460ff16151515158152505084868151811061109e5761109d613f4d565b5b60200260200101819052506001856110b69190613ef7565b945050505b80806110c690613f7c565b915050610efe565b508094505050505090565b6110ea6110e461243f565b82612524565b611129576040517f08c379a0000000000000000000000000000000000000000000000000000000008152600401611120906141f1565b60405180910390fd5b611134838383612602565b505050565b60011515600e600085815260200190815260200160002060050160009054906101000a900460ff161515146111a3576040517f08c379a000000000000000000000000000000000000000000000000000000000815260040161119a9061425d565b60405180910390fd5b81600e60008581526020019081526020016000206002018190555080600e6000858152602001908152602001600020600201819055507f7068eff53d4130b0bc23272635506565df6c5b683e458708df42b5468245b7bd83838360405161120c9392919061427d565b60405180910390a1505050565b611223600961250e565b600061122f6009612500565b90506040518060c001604052803373ffffffffffffffffffffffffffffffffffffffff16815260200142815260200185815260200184815260200183815260200160011515815250600e600083815260200190815260200160002060008201518160000160006101000a81548173ffffffffffffffffffffffffffffffffffffffff021916908373ffffffffffffffffffffffffffffffffffffffff160217905550602082015181600101556040820151816002015560608201518160030155608082015181600401908051906020019061130b9291906131d4565b5060a08201518160050160006101000a81548160ff0219169083151502179055509050507ff721e33d46866b7b414e72296025134f1a7942e8b66fa29295f2158d6d8f6a35334286868686604051611368969594939291906142b4565b60405180910390a150505050565b61139183838360405180602001604052806000815250611cbc565b505050565b606060006113a46008612500565b905060008060005b8381101561144d573373ffffffffffffffffffffffffffffffffffffffff16600d60006001846113dc9190613ef7565b815260200190815260200160002060010160009054906101000a900473ffffffffffffffffffffffffffffffffffffffff1673ffffffffffffffffffffffffffffffffffffffff16141561143a576001836114379190613ef7565b92505b808061144590613f7c565b9150506113ac565b5060008267ffffffffffffffff81111561146a576114696136ae565b5b6040519080825280602002602001820160405280156114a357816020015b611490613177565b8152602001906001900390816114885790505b50905060005b84811015611679573373ffffffffffffffffffffffffffffffffffffffff16600d60006001846114d99190613ef7565b815260200190815260200160002060010160009054906101000a900473ffffffffffffffffffffffffffffffffffffffff1673ffffffffffffffffffffffffffffffffffffffff1614156116665760006001826115369190613ef7565b90506000600d60008381526020019081526020016000209050806040518060a0016040529081600082015481526020016001820160009054906101000a900473ffffffffffffffffffffffffffffffffffffffff1673ffffffffffffffffffffffffffffffffffffffff1673ffffffffffffffffffffffffffffffffffffffff1681526020016002820160009054906101000a900473ffffffffffffffffffffffffffffffffffffffff1673ffffffffffffffffffffffffffffffffffffffff1673ffffffffffffffffffffffffffffffffffffffff168152602001600382015481526020016004820160009054906101000a900460ff16151515158152505084868151811061164957611648613f4d565b5b60200260200101819052506001856116619190613ef7565b945050505b808061167190613f7c565b9150506114a9565b508094505050505090565b600080600f6000848152602001908152602001600020905060008160030154116116e3576040517f08c379a00000000000000000000000000000000000000000000000000000000081526004016116da90614368565b60405180910390fd5b34816003015414611729576040517f08c379a0000000000000000000000000000000000000000000000000000000008152600401611720906143d4565b60405180910390fd5b4281600401541180156117515750600f60008481526020019081526020016000206005015442105b611790576040517f08c379a000000000000000000000000000000000000000000000000000000000815260040161178790614440565b60405180910390fd5b7fffffffffffffffffffffffffffffffffffffffffffffffffffffffffffffffff816006015414806117c6575060008160060154135b611805576040517f08c379a00000000000000000000000000000000000000000000000000000000081526004016117fc906144ac565b60405180910390fd5b7fffffffffffffffffffffffffffffffffffffffffffffffffffffffffffffffff81600601541461184b57806007016000815480929190611845906144cc565b91905055505b6000611855611bf5565b90506118618185612869565b7f8f452c855319507558f448a0bc0d50aa975f3508ef157722a8c8cdc006def7eb81853385600201866007015460405161189f959493929190614515565b60405180910390a18092505050919050565b6118b961243f565b73ffffffffffffffffffffffffffffffffffffffff166118d7611b39565b73ffffffffffffffffffffffffffffffffffffffff161461192d576040517f08c379a0000000000000000000000000000000000000000000000000000000008152600401611924906145bb565b60405180910390fd5b80600790805190602001906119439291906131d4565b5050565b6000806002600084815260200190815260200160002060009054906101000a900473ffffffffffffffffffffffffffffffffffffffff169050600073ffffffffffffffffffffffffffffffffffffffff168173ffffffffffffffffffffffffffffffffffffffff1614156119f0576040517f08c379a00000000000000000000000000000000000000000000000000000000081526004016119e79061464d565b60405180910390fd5b80915050919050565b60008073ffffffffffffffffffffffffffffffffffffffff168273ffffffffffffffffffffffffffffffffffffffff161415611a6a576040517f08c379a0000000000000000000000000000000000000000000000000000000008152600401611a61906146df565b60405180910390fd5b600360008373ffffffffffffffffffffffffffffffffffffffff1673ffffffffffffffffffffffffffffffffffffffff168152602001908152602001600020549050919050565b611ab961243f565b73ffffffffffffffffffffffffffffffffffffffff16611ad7611b39565b73ffffffffffffffffffffffffffffffffffffffff1614611b2d576040517f08c379a0000000000000000000000000000000000000000000000000000000008152600401611b24906145bb565b60405180910390fd5b611b3760006128fb565b565b6000600660009054906101000a900473ffffffffffffffffffffffffffffffffffffffff16905090565b606060018054611b7290613cac565b80601f0160208091040260200160405190810160405280929190818152602001828054611b9e90613cac565b8015611beb5780601f10611bc057610100808354040283529160200191611beb565b820191906000526020600020905b815481529060010190602001808311611bce57829003601f168201915b5050505050905090565b6000611c01600861250e565b6000611c0d6008612500565b9050611c1933826129c1565b8091505090565b611c32611c2b61243f565b8383612b9b565b5050565b611c3e61243f565b73ffffffffffffffffffffffffffffffffffffffff16611c5c611b39565b73ffffffffffffffffffffffffffffffffffffffff1614611cb2576040517f08c379a0000000000000000000000000000000000000000000000000000000008152600401611ca9906145bb565b60405180910390fd5b80600c8190555050565b611ccd611cc761243f565b83612524565b611d0c576040517f08c379a0000000000000000000000000000000000000000000000000000000008152600401611d03906141f1565b60405180910390fd5b611d1884848484612d08565b50505050565b6000600d60008381526020019081526020016000206003015490506000600d600084815260200190815260200160002060010160009054906101000a900473ffffffffffffffffffffffffffffffffffffffff169050813414611db6576040517f08c379a0000000000000000000000000000000000000000000000000000000008152600401611dad90614771565b60405180910390fd5b33600d600085815260200190815260200160002060020160006101000a81548173ffffffffffffffffffffffffffffffffffffffff021916908373ffffffffffffffffffffffffffffffffffffffff1602179055506001600d600085815260200190815260200160002060040160006101000a81548160ff0219169083151502179055506000600d600085815260200190815260200160002060010160006101000a81548173ffffffffffffffffffffffffffffffffffffffff021916908373ffffffffffffffffffffffffffffffffffffffff160217905550611e9a600b61250e565b611ea5303385612602565b611ead611b39565b73ffffffffffffffffffffffffffffffffffffffff166108fc600c549081150290604051600060405180830381858888f19350505050158015611ef4573d6000803e3d6000fd5b508073ffffffffffffffffffffffffffffffffffffffff166108fc349081150290604051600060405180830381858888f19350505050158015611f3b573d6000803e3d6000fd5b50505050565b6060611f4c826123d3565b611f8b576040517f08c379a0000000000000000000000000000000000000000000000000000000008152600401611f8290614803565b60405180910390fd5b6000611f95612d64565b90506000815111611fb55760405180602001604052806000815250611fe0565b80611fbf84612df6565b604051602001611fd092919061485f565b6040516020818303038152906040525b915050919050565b3373ffffffffffffffffffffffffffffffffffffffff16600d600084815260200190815260200160002060020160009054906101000a900473ffffffffffffffffffffffffffffffffffffffff1673ffffffffffffffffffffffffffffffffffffffff161461208c576040517f08c379a0000000000000000000000000000000000000000000000000000000008152600401612083906148f5565b60405180910390fd5b600c5434146120d0576040517f08c379a00000000000000000000000000000000000000000000000000000000081526004016120c790614987565b60405180910390fd5b6000600d600084815260200190815260200160002060040160006101000a81548160ff02191690831515021790555080600d60008481526020019081526020016000206003018190555033600d600084815260200190815260200160002060010160006101000a81548173ffffffffffffffffffffffffffffffffffffffff021916908373ffffffffffffffffffffffffffffffffffffffff16021790555030600d600084815260200190815260200160002060020160006101000a81548173ffffffffffffffffffffffffffffffffffffffff021916908373ffffffffffffffffffffffffffffffffffffffff1602179055506121ce600b612f57565b6121d9333084612602565b5050565b6000600560008473ffffffffffffffffffffffffffffffffffffffff1673ffffffffffffffffffffffffffffffffffffffff16815260200190815260200160002060008373ffffffffffffffffffffffffffffffffffffffff1673ffffffffffffffffffffffffffffffffffffffff16815260200190815260200160002060009054906101000a900460ff16905092915050565b61227961243f565b73ffffffffffffffffffffffffffffffffffffffff16612297611b39565b73ffffffffffffffffffffffffffffffffffffffff16146122ed576040517f08c379a00000000000000000000000000000000000000000000000000000000081526004016122e4906145bb565b60405180910390fd5b600073ffffffffffffffffffffffffffffffffffffffff168173ffffffffffffffffffffffffffffffffffffffff16141561235d576040517f08c379a000000000000000000000000000000000000000000000000000000000815260040161235490614a19565b60405180910390fd5b612366816128fb565b50565b60007f01ffc9a7000000000000000000000000000000000000000000000000000000007bffffffffffffffffffffffffffffffffffffffffffffffffffffffff1916827bffffffffffffffffffffffffffffffffffffffffffffffffffffffff1916149050919050565b60008073ffffffffffffffffffffffffffffffffffffffff166002600084815260200190815260200160002060009054906101000a900473ffffffffffffffffffffffffffffffffffffffff1673ffffffffffffffffffffffffffffffffffffffff1614159050919050565b600033905090565b816004600083815260200190815260200160002060006101000a81548173ffffffffffffffffffffffffffffffffffffffff021916908373ffffffffffffffffffffffffffffffffffffffff160217905550808273ffffffffffffffffffffffffffffffffffffffff166124ba83611947565b73ffffffffffffffffffffffffffffffffffffffff167f8c5be1e5ebec7d5bd14f71427d1e84f3dd0314c0f7b2291e5b200ac8c7c3b92560405160405180910390a45050565b600081600001549050919050565b6001816000016000828254019250508190555050565b600061252f826123d3565b61256e576040517f08c379a000000000000000000000000000000000000000000000000000000000815260040161256590614aab565b60405180910390fd5b600061257983611947565b90508073ffffffffffffffffffffffffffffffffffffffff168473ffffffffffffffffffffffffffffffffffffffff1614806125bb57506125ba81856121dd565b5b806125f957508373ffffffffffffffffffffffffffffffffffffffff166125e184610836565b73ffffffffffffffffffffffffffffffffffffffff16145b91505092915050565b8273ffffffffffffffffffffffffffffffffffffffff1661262282611947565b73ffffffffffffffffffffffffffffffffffffffff1614612678576040517f08c379a000000000000000000000000000000000000000000000000000000000815260040161266f90614b3d565b60405180910390fd5b600073ffffffffffffffffffffffffffffffffffffffff168273ffffffffffffffffffffffffffffffffffffffff1614156126e8576040517f08c379a00000000000000000000000000000000000000000000000000000000081526004016126df90614bcf565b60405180910390fd5b6126f3838383612fb3565b6126fe600082612447565b6001600360008573ffffffffffffffffffffffffffffffffffffffff1673ffffffffffffffffffffffffffffffffffffffff168152602001908152602001600020600082825461274e9190613ec3565b925050819055506001600360008473ffffffffffffffffffffffffffffffffffffffff1673ffffffffffffffffffffffffffffffffffffffff16815260200190815260200160002060008282546127a59190613ef7565b92505081905550816002600083815260200190815260200160002060006101000a81548173ffffffffffffffffffffffffffffffffffffffff021916908373ffffffffffffffffffffffffffffffffffffffff160217905550808273ffffffffffffffffffffffffffffffffffffffff168473ffffffffffffffffffffffffffffffffffffffff167fddf252ad1be2c89b69c2b068fc378daa952ba7f163c4a11628f55a4df523b3ef60405160405180910390a4612864838383612fb8565b505050565b61287282611947565b73ffffffffffffffffffffffffffffffffffffffff163373ffffffffffffffffffffffffffffffffffffffff16146128df576040517f08c379a00000000000000000000000000000000000000000000000000000000081526004016128d690614c3b565b60405180910390fd5b8060106000848152602001908152602001600020819055505050565b6000600660009054906101000a900473ffffffffffffffffffffffffffffffffffffffff16905081600660006101000a81548173ffffffffffffffffffffffffffffffffffffffff021916908373ffffffffffffffffffffffffffffffffffffffff1602179055508173ffffffffffffffffffffffffffffffffffffffff168173ffffffffffffffffffffffffffffffffffffffff167f8be0079c531659141344cd1fd0a4f28419497f9722a3daafe3b4186f6b6457e060405160405180910390a35050565b600073ffffffffffffffffffffffffffffffffffffffff168273ffffffffffffffffffffffffffffffffffffffff161415612a31576040517f08c379a0000000000000000000000000000000000000000000000000000000008152600401612a2890614ca7565b60405180910390fd5b612a3a816123d3565b15612a7a576040517f08c379a0000000000000000000000000000000000000000000000000000000008152600401612a7190614d13565b60405180910390fd5b612a8660008383612fb3565b6001600360008473ffffffffffffffffffffffffffffffffffffffff1673ffffffffffffffffffffffffffffffffffffffff1681526020019081526020016000206000828254612ad69190613ef7565b92505081905550816002600083815260200190815260200160002060006101000a81548173ffffffffffffffffffffffffffffffffffffffff021916908373ffffffffffffffffffffffffffffffffffffffff160217905550808273ffffffffffffffffffffffffffffffffffffffff16600073ffffffffffffffffffffffffffffffffffffffff167fddf252ad1be2c89b69c2b068fc378daa952ba7f163c4a11628f55a4df523b3ef60405160405180910390a4612b9760008383612fb8565b5050565b8173ffffffffffffffffffffffffffffffffffffffff168373ffffffffffffffffffffffffffffffffffffffff161415612c0a576040517f08c379a0000000000000000000000000000000000000000000000000000000008152600401612c0190614d7f565b60405180910390fd5b80600560008573ffffffffffffffffffffffffffffffffffffffff1673ffffffffffffffffffffffffffffffffffffffff16815260200190815260200160002060008473ffffffffffffffffffffffffffffffffffffffff1673ffffffffffffffffffffffffffffffffffffffff16815260200190815260200160002060006101000a81548160ff0219169083151502179055508173ffffffffffffffffffffffffffffffffffffffff168373ffffffffffffffffffffffffffffffffffffffff167f17307eab39ab6107e8899845ad3d59bd9653f200f220920489ca2b5937696c3183604051612cfb919061332b565b60405180910390a3505050565b612d13848484612602565b612d1f84848484612fbd565b612d5e576040517f08c379a0000000000000000000000000000000000000000000000000000000008152600401612d5590614e11565b60405180910390fd5b50505050565b606060078054612d7390613cac565b80601f0160208091040260200160405190810160405280929190818152602001828054612d9f90613cac565b8015612dec5780601f10612dc157610100808354040283529160200191612dec565b820191906000526020600020905b815481529060010190602001808311612dcf57829003601f168201915b5050505050905090565b60606000821415612e3e576040518060400160405280600181526020017f30000000000000000000000000000000000000000000000000000000000000008152509050612f52565b600082905060005b60008214612e70578080612e5990613f7c565b915050600a82612e699190614e60565b9150612e46565b60008167ffffffffffffffff811115612e8c57612e8b6136ae565b5b6040519080825280601f01601f191660200182016040528015612ebe5781602001600182028036833780820191505090505b5090505b60008514612f4b57600182612ed79190613ec3565b9150600a85612ee69190614e91565b6030612ef29190613ef7565b60f81b818381518110612f0857612f07613f4d565b5b60200101907effffffffffffffffffffffffffffffffffffffffffffffffffffffffffffff1916908160001a905350600a85612f449190614e60565b9450612ec2565b8093505050505b919050565b60008160000154905060008111612fa3576040517f08c379a0000000000000000000000000000000000000000000000000000000008152600401612f9a90614f0e565b60405180910390fd5b6001810382600001819055505050565b505050565b505050565b6000612fde8473ffffffffffffffffffffffffffffffffffffffff16613154565b15613147578373ffffffffffffffffffffffffffffffffffffffff1663150b7a0261300761243f565b8786866040518563ffffffff1660e01b81526004016130299493929190614f83565b602060405180830381600087803b15801561304357600080fd5b505af192505050801561307457506040513d601f19601f820116820180604052508101906130719190614fe4565b60015b6130f7573d80600081146130a4576040519150601f19603f3d011682016040523d82523d6000602084013e6130a9565b606091505b506000815114156130ef576040517f08c379a00000000000000000000000000000000000000000000000000000000081526004016130e690614e11565b60405180910390fd5b805181602001fd5b63150b7a0260e01b7bffffffffffffffffffffffffffffffffffffffffffffffffffffffff1916817bffffffffffffffffffffffffffffffffffffffffffffffffffffffff19161491505061314c565b600190505b949350505050565b6000808273ffffffffffffffffffffffffffffffffffffffff163b119050919050565b6040518060a0016040528060008152602001600073ffffffffffffffffffffffffffffffffffffffff168152602001600073ffffffffffffffffffffffffffffffffffffffff168152602001600081526020016000151581525090565b8280546131e090613cac565b90600052602060002090601f0160209004810192826132025760008555613249565b82601f1061321b57805160ff1916838001178555613249565b82800160010185558215613249579182015b8281111561324857825182559160200191906001019061322d565b5b509050613256919061325a565b5090565b5b8082111561327357600081600090555060010161325b565b5090565b6000604051905090565b600080fd5b600080fd5b60007fffffffff0000000000000000000000000000000000000000000000000000000082169050919050565b6132c08161328b565b81146132cb57600080fd5b50565b6000813590506132dd816132b7565b92915050565b6000602082840312156132f9576132f8613281565b5b6000613307848285016132ce565b91505092915050565b60008115159050919050565b61332581613310565b82525050565b6000602082019050613340600083018461331c565b92915050565b600081519050919050565b600082825260208201905092915050565b60005b83811015613380578082015181840152602081019050613365565b8381111561338f576000848401525b50505050565b6000601f19601f8301169050919050565b60006133b182613346565b6133bb8185613351565b93506133cb818560208601613362565b6133d481613395565b840191505092915050565b600060208201905081810360008301526133f981846133a6565b905092915050565b6000819050919050565b61341481613401565b811461341f57600080fd5b50565b6000813590506134318161340b565b92915050565b60006020828403121561344d5761344c613281565b5b600061345b84828501613422565b91505092915050565b600073ffffffffffffffffffffffffffffffffffffffff82169050919050565b600061348f82613464565b9050919050565b61349f81613484565b82525050565b60006020820190506134ba6000830184613496565b92915050565b6134c981613484565b81146134d457600080fd5b50565b6000813590506134e6816134c0565b92915050565b6000806040838503121561350357613502613281565b5b6000613511858286016134d7565b925050602061352285828601613422565b9150509250929050565b600081519050919050565b600082825260208201905092915050565b6000819050602082019050919050565b61356181613401565b82525050565b600061357282613464565b9050919050565b61358281613567565b82525050565b61359181613310565b82525050565b60a0820160008201516135ad6000850182613558565b5060208201516135c06020850182613579565b5060408201516135d36040850182613579565b5060608201516135e66060850182613558565b5060808201516135f96080850182613588565b50505050565b600061360b8383613597565b60a08301905092915050565b6000602082019050919050565b600061362f8261352c565b6136398185613537565b935061364483613548565b8060005b8381101561367557815161365c88826135ff565b975061366783613617565b925050600181019050613648565b5085935050505092915050565b6000602082019050818103600083015261369c8184613624565b905092915050565b600080fd5b600080fd5b7f4e487b7100000000000000000000000000000000000000000000000000000000600052604160045260246000fd5b6136e682613395565b810181811067ffffffffffffffff82111715613705576137046136ae565b5b80604052505050565b6000613718613277565b905061372482826136dd565b919050565b600067ffffffffffffffff821115613744576137436136ae565b5b61374d82613395565b9050602081019050919050565b82818337600083830152505050565b600061377c61377784613729565b61370e565b905082815260208101848484011115613798576137976136a9565b5b6137a384828561375a565b509392505050565b600082601f8301126137c0576137bf6136a4565b5b81356137d0848260208601613769565b91505092915050565b6000819050919050565b6137ec816137d9565b81146137f757600080fd5b50565b600081359050613809816137e3565b92915050565b60008060008060008060c0878903121561382c5761382b613281565b5b600061383a89828a01613422565b965050602087013567ffffffffffffffff81111561385b5761385a613286565b5b61386789828a016137ab565b955050604061387889828a01613422565b945050606061388989828a01613422565b935050608061389a89828a01613422565b92505060a06138ab89828a016137fa565b9150509295509295509295565b6138c181613401565b82525050565b60006020820190506138dc60008301846138b8565b92915050565b6000806000606084860312156138fb576138fa613281565b5b6000613909868287016134d7565b935050602061391a868287016134d7565b925050604061392b86828701613422565b9150509250925092565b60008060006060848603121561394e5761394d613281565b5b600061395c86828701613422565b935050602061396d86828701613422565b925050604061397e86828701613422565b9150509250925092565b6000806000606084860312156139a1576139a0613281565b5b60006139af86828701613422565b93505060206139c086828701613422565b925050604084013567ffffffffffffffff8111156139e1576139e0613286565b5b6139ed868287016137ab565b9150509250925092565b600060208284031215613a0d57613a0c613281565b5b600082013567ffffffffffffffff811115613a2b57613a2a613286565b5b613a37848285016137ab565b91505092915050565b600060208284031215613a5657613a55613281565b5b6000613a64848285016134d7565b91505092915050565b613a7681613310565b8114613a8157600080fd5b50565b600081359050613a9381613a6d565b92915050565b60008060408385031215613ab057613aaf613281565b5b6000613abe858286016134d7565b9250506020613acf85828601613a84565b9150509250929050565b600067ffffffffffffffff821115613af457613af36136ae565b5b613afd82613395565b9050602081019050919050565b6000613b1d613b1884613ad9565b61370e565b905082815260208101848484011115613b3957613b386136a9565b5b613b4484828561375a565b509392505050565b600082601f830112613b6157613b606136a4565b5b8135613b71848260208601613b0a565b91505092915050565b60008060008060808587031215613b9457613b93613281565b5b6000613ba2878288016134d7565b9450506020613bb3878288016134d7565b9350506040613bc487828801613422565b925050606085013567ffffffffffffffff811115613be557613be4613286565b5b613bf187828801613b4c565b91505092959194509250565b60008060408385031215613c1457613c13613281565b5b6000613c2285828601613422565b9250506020613c3385828601613422565b9150509250929050565b60008060408385031215613c5457613c53613281565b5b6000613c62858286016134d7565b9250506020613c73858286016134d7565b9150509250929050565b7f4e487b7100000000000000000000000000000000000000000000000000000000600052602260045260246000fd5b60006002820490506001821680613cc457607f821691505b60208210811415613cd857613cd7613c7d565b5b50919050565b7f4552433732313a20617070726f76656420717565727920666f72206e6f6e657860008201527f697374656e7420746f6b656e0000000000000000000000000000000000000000602082015250565b6000613d3a602c83613351565b9150613d4582613cde565b604082019050919050565b60006020820190508181036000830152613d6981613d2d565b9050919050565b7f4552433732313a20617070726f76616c20746f2063757272656e74206f776e6560008201527f7200000000000000000000000000000000000000000000000000000000000000602082015250565b6000613dcc602183613351565b9150613dd782613d70565b604082019050919050565b60006020820190508181036000830152613dfb81613dbf565b9050919050565b7f4552433732313a20617070726f76652063616c6c6572206973206e6f74206f7760008201527f6e6572206e6f7220617070726f76656420666f7220616c6c0000000000000000602082015250565b6000613e5e603883613351565b9150613e6982613e02565b604082019050919050565b60006020820190508181036000830152613e8d81613e51565b9050919050565b7f4e487b7100000000000000000000000000000000000000000000000000000000600052601160045260246000fd5b6000613ece82613401565b9150613ed983613401565b925082821015613eec57613eeb613e94565b5b828203905092915050565b6000613f0282613401565b9150613f0d83613401565b9250827fffffffffffffffffffffffffffffffffffffffffffffffffffffffffffffffff03821115613f4257613f41613e94565b5b828201905092915050565b7f4e487b7100000000000000000000000000000000000000000000000000000000600052603260045260246000fd5b6000613f8782613401565b91507fffffffffffffffffffffffffffffffffffffffffffffffffffffffffffffffff821415613fba57613fb9613e94565b5b600182019050919050565b7f5072696365206d757374206265206174206c6561737420312077656900000000600082015250565b6000613ffb601c83613351565b915061400682613fc5565b602082019050919050565b6000602082019050818103600083015261402a81613fee565b9050919050565b61403a816137d9565b82525050565b60008190508160005260206000209050919050565b6000815461406281613cac565b61406c8186613351565b945060018216600081146140875760018114614099576140cc565b60ff19831686526020860193506140cc565b6140a285614040565b60005b838110156140c4578154818901526001820191506020810190506140a5565b808801955050505b50505092915050565b6000610140820190506140eb600083018d6138b8565b6140f8602083018c6138b8565b818103604083015261410a818b6133a6565b9050614119606083018a6138b8565b61412660808301896138b8565b61413360a08301886138b8565b61414060c0830187614031565b61414d60e0830186614031565b8181036101008301526141608185614055565b90506141706101208301846138b8565b9b9a5050505050505050505050565b7f4552433732313a207472616e736665722063616c6c6572206973206e6f74206f60008201527f776e6572206e6f7220617070726f766564000000000000000000000000000000602082015250565b60006141db603183613351565b91506141e68261417f565b604082019050919050565b6000602082019050818103600083015261420a816141ce565b9050919050565b7f4e6f742065786973747300000000000000000000000000000000000000000000600082015250565b6000614247600a83613351565b915061425282614211565b602082019050919050565b600060208201905081810360008301526142768161423a565b9050919050565b600060608201905061429260008301866138b8565b61429f60208301856138b8565b6142ac60408301846138b8565b949350505050565b600060c0820190506142c96000830189613496565b6142d660208301886138b8565b6142e360408301876138b8565b6142f060608301866138b8565b818103608083015261430281856133a6565b905061431160a08301846138b8565b979650505050505050565b7f5469636b65742074797065206e6f742065787369740000000000000000000000600082015250565b6000614352601583613351565b915061435d8261431c565b602082019050919050565b6000602082019050818103600083015261438181614345565b9050919050565b7f4e6f7420636f727265637420616d6f756e74206f66206d6f6e65790000000000600082015250565b60006143be601b83613351565b91506143c982614388565b602082019050919050565b600060208201905081810360008301526143ed816143b1565b9050919050565b7f4e6f7420696e2073656c6c696e672074696d6500000000000000000000000000600082015250565b600061442a601383613351565b9150614435826143f4565b602082019050919050565b600060208201905081810360008301526144598161441d565b9050919050565b7f4e6f207469636b6574206c656674000000000000000000000000000000000000600082015250565b6000614496600e83613351565b91506144a182614460565b602082019050919050565b600060208201905081810360008301526144c581614489565b9050919050565b60006144d7826137d9565b91507f800000000000000000000000000000000000000000000000000000000000000082141561450a57614509613e94565b5b600182039050919050565b600060a08201905061452a60008301886138b8565b61453760208301876138b8565b6145446040830186613496565b81810360608301526145568185614055565b90506145656080830184614031565b9695505050505050565b7f4f776e61626c653a2063616c6c6572206973206e6f7420746865206f776e6572600082015250565b60006145a5602083613351565b91506145b08261456f565b602082019050919050565b600060208201905081810360008301526145d481614598565b9050919050565b7f4552433732313a206f776e657220717565727920666f72206e6f6e657869737460008201527f656e7420746f6b656e0000000000000000000000000000000000000000000000602082015250565b6000614637602983613351565b9150614642826145db565b604082019050919050565b600060208201905081810360008301526146668161462a565b9050919050565b7f4552433732313a2062616c616e636520717565727920666f7220746865207a6560008201527f726f206164647265737300000000000000000000000000000000000000000000602082015250565b60006146c9602a83613351565b91506146d48261466d565b604082019050919050565b600060208201905081810360008301526146f8816146bc565b9050919050565b7f506c65617365207375626d6974207468652061736b696e67207072696365206960008201527f6e206f7264657220746f20636f6d706c65746520746865207075726368617365602082015250565b600061475b604083613351565b9150614766826146ff565b604082019050919050565b6000602082019050818103600083015261478a8161474e565b9050919050565b7f4552433732314d657461646174613a2055524920717565727920666f72206e6f60008201527f6e6578697374656e7420746f6b656e0000000000000000000000000000000000602082015250565b60006147ed602f83613351565b91506147f882614791565b604082019050919050565b6000602082019050818103600083015261481c816147e0565b9050919050565b600081905092915050565b600061483982613346565b6148438185614823565b9350614853818560208601613362565b80840191505092915050565b600061486b828561482e565b9150614877828461482e565b91508190509392505050565b7f4f6e6c79206974656d206f776e65722063616e20706572666f726d207468697360008201527f206f7065726174696f6e00000000000000000000000000000000000000000000602082015250565b60006148df602a83613351565b91506148ea82614883565b604082019050919050565b6000602082019050818103600083015261490e816148d2565b9050919050565b7f5072696365206d75737420626520657175616c20746f206c697374696e67207060008201527f7269636500000000000000000000000000000000000000000000000000000000602082015250565b6000614971602483613351565b915061497c82614915565b604082019050919050565b600060208201905081810360008301526149a081614964565b9050919050565b7f4f776e61626c653a206e6577206f776e657220697320746865207a65726f206160008201527f6464726573730000000000000000000000000000000000000000000000000000602082015250565b6000614a03602683613351565b9150614a0e826149a7565b604082019050919050565b60006020820190508181036000830152614a32816149f6565b9050919050565b7f4552433732313a206f70657261746f7220717565727920666f72206e6f6e657860008201527f697374656e7420746f6b656e0000000000000000000000000000000000000000602082015250565b6000614a95602c83613351565b9150614aa082614a39565b604082019050919050565b60006020820190508181036000830152614ac481614a88565b9050919050565b7f4552433732313a207472616e736665722066726f6d20696e636f72726563742060008201527f6f776e6572000000000000000000000000000000000000000000000000000000602082015250565b6000614b27602583613351565b9150614b3282614acb565b604082019050919050565b60006020820190508181036000830152614b5681614b1a565b9050919050565b7f4552433732313a207472616e7366657220746f20746865207a65726f2061646460008201527f7265737300000000000000000000000000000000000000000000000000000000602082015250565b6000614bb9602483613351565b9150614bc482614b5d565b604082019050919050565b60006020820190508181036000830152614be881614bac565b9050919050565b7f4861766520746f206265206f6e776572206f6620746f6b656e00000000000000600082015250565b6000614c25601983613351565b9150614c3082614bef565b602082019050919050565b60006020820190508181036000830152614c5481614c18565b9050919050565b7f4552433732313a206d696e7420746f20746865207a65726f2061646472657373600082015250565b6000614c91602083613351565b9150614c9c82614c5b565b602082019050919050565b60006020820190508181036000830152614cc081614c84565b9050919050565b7f4552433732313a20746f6b656e20616c7265616479206d696e74656400000000600082015250565b6000614cfd601c83613351565b9150614d0882614cc7565b602082019050919050565b60006020820190508181036000830152614d2c81614cf0565b9050919050565b7f4552433732313a20617070726f766520746f2063616c6c657200000000000000600082015250565b6000614d69601983613351565b9150614d7482614d33565b602082019050919050565b60006020820190508181036000830152614d9881614d5c565b9050919050565b7f4552433732313a207472616e7366657220746f206e6f6e20455243373231526560008201527f63656976657220696d706c656d656e7465720000000000000000000000000000602082015250565b6000614dfb603283613351565b9150614e0682614d9f565b604082019050919050565b60006020820190508181036000830152614e2a81614dee565b9050919050565b7f4e487b7100000000000000000000000000000000000000000000000000000000600052601260045260246000fd5b6000614e6b82613401565b9150614e7683613401565b925082614e8657614e85614e31565b5b828204905092915050565b6000614e9c82613401565b9150614ea783613401565b925082614eb757614eb6614e31565b5b828206905092915050565b7f436f756e7465723a2064656372656d656e74206f766572666c6f770000000000600082015250565b6000614ef8601b83613351565b9150614f0382614ec2565b602082019050919050565b60006020820190508181036000830152614f2781614eeb565b9050919050565b600081519050919050565b600082825260208201905092915050565b6000614f5582614f2e565b614f5f8185614f39565b9350614f6f818560208601613362565b614f7881613395565b840191505092915050565b6000608082019050614f986000830187613496565b614fa56020830186613496565b614fb260408301856138b8565b8181036060830152614fc48184614f4a565b905095945050505050565b600081519050614fde816132b7565b92915050565b600060208284031215614ffa57614ff9613281565b5b600061500884828501614fcf565b9150509291505056fea2646970667358221220d4e2f34a2bd1ea9dc89b7d5ea01807597ffd94f0a9777fc6459513e47f0eec4c64736f6c63430008080033687474703a2f2f6c6f63616c686f73743a353030302f6576656e742d7469636b65742f646174612f",
  "devdoc": {
    "kind": "dev",
    "methods": {
      "approve(address,uint256)": {
        "details": "See {IERC721-approve}."
      },
      "balanceOf(address)": {
        "details": "See {IERC721-balanceOf}."
      },
      "getApproved(uint256)": {
        "details": "See {IERC721-getApproved}."
      },
      "isApprovedForAll(address,address)": {
        "details": "See {IERC721-isApprovedForAll}."
      },
      "name()": {
        "details": "See {IERC721Metadata-name}."
      },
      "owner()": {
        "details": "Returns the address of the current owner."
      },
      "ownerOf(uint256)": {
        "details": "See {IERC721-ownerOf}."
      },
      "renounceOwnership()": {
        "details": "Leaves the contract without owner. It will not be possible to call `onlyOwner` functions anymore. Can only be called by the current owner. NOTE: Renouncing ownership will leave the contract without an owner, thereby removing any functionality that is only available to the owner."
      },
      "safeTransferFrom(address,address,uint256)": {
        "details": "See {IERC721-safeTransferFrom}."
      },
      "safeTransferFrom(address,address,uint256,bytes)": {
        "details": "See {IERC721-safeTransferFrom}."
      },
      "setApprovalForAll(address,bool)": {
        "details": "See {IERC721-setApprovalForAll}."
      },
      "supportsInterface(bytes4)": {
        "details": "See {IERC165-supportsInterface}."
      },
      "symbol()": {
        "details": "See {IERC721Metadata-symbol}."
      },
      "tokenURI(uint256)": {
        "details": "See {IERC721Metadata-tokenURI}."
      },
      "transferFrom(address,address,uint256)": {
        "details": "See {IERC721-transferFrom}."
      },
      "transferOwnership(address)": {
        "details": "Transfers ownership of the contract to a new account (`newOwner`). Can only be called by the current owner."
      }
    },
    "version": 1
  },
  "userdoc": {
    "kind": "user",
    "methods": {},
    "version": 1
  },
  "storageLayout": {
    "storage": [
      {
        "astId": 130,
        "contract": "contracts/NFTTicketMarketplace.sol:NFTTicketMarketplace",
        "label": "_name",
        "offset": 0,
        "slot": "0",
        "type": "t_string_storage"
      },
      {
        "astId": 132,
        "contract": "contracts/NFTTicketMarketplace.sol:NFTTicketMarketplace",
        "label": "_symbol",
        "offset": 0,
        "slot": "1",
        "type": "t_string_storage"
      },
      {
        "astId": 136,
        "contract": "contracts/NFTTicketMarketplace.sol:NFTTicketMarketplace",
        "label": "_owners",
        "offset": 0,
        "slot": "2",
        "type": "t_mapping(t_uint256,t_address)"
      },
      {
        "astId": 140,
        "contract": "contracts/NFTTicketMarketplace.sol:NFTTicketMarketplace",
        "label": "_balances",
        "offset": 0,
        "slot": "3",
        "type": "t_mapping(t_address,t_uint256)"
      },
      {
        "astId": 144,
        "contract": "contracts/NFTTicketMarketplace.sol:NFTTicketMarketplace",
        "label": "_tokenApprovals",
        "offset": 0,
        "slot": "4",
        "type": "t_mapping(t_uint256,t_address)"
      },
      {
        "astId": 150,
        "contract": "contracts/NFTTicketMarketplace.sol:NFTTicketMarketplace",
        "label": "_operatorApprovals",
        "offset": 0,
        "slot": "5",
        "type": "t_mapping(t_address,t_mapping(t_address,t_bool))"
      },
      {
        "astId": 7,
        "contract": "contracts/NFTTicketMarketplace.sol:NFTTicketMarketplace",
        "label": "_owner",
        "offset": 0,
        "slot": "6",
        "type": "t_address"
      },
      {
        "astId": 1902,
        "contract": "contracts/NFTTicketMarketplace.sol:NFTTicketMarketplace",
        "label": "baseURI",
        "offset": 0,
        "slot": "7",
        "type": "t_string_storage"
      },
      {
        "astId": 2022,
        "contract": "contracts/NFTTicketMarketplace.sol:NFTTicketMarketplace",
        "label": "_tokenIds",
        "offset": 0,
        "slot": "8",
        "type": "t_struct(Counter)1582_storage"
      },
      {
        "astId": 2025,
        "contract": "contracts/NFTTicketMarketplace.sol:NFTTicketMarketplace",
        "label": "_eventIds",
        "offset": 0,
        "slot": "9",
        "type": "t_struct(Counter)1582_storage"
      },
      {
        "astId": 2028,
        "contract": "contracts/NFTTicketMarketplace.sol:NFTTicketMarketplace",
        "label": "_typeTicketIds",
        "offset": 0,
        "slot": "10",
        "type": "t_struct(Counter)1582_storage"
      },
      {
        "astId": 2031,
        "contract": "contracts/NFTTicketMarketplace.sol:NFTTicketMarketplace",
        "label": "_itemsSold",
        "offset": 0,
        "slot": "11",
        "type": "t_struct(Counter)1582_storage"
      },
      {
        "astId": 2034,
        "contract": "contracts/NFTTicketMarketplace.sol:NFTTicketMarketplace",
        "label": "listingPrice",
        "offset": 0,
        "slot": "12",
        "type": "t_uint256"
      },
      {
        "astId": 2039,
        "contract": "contracts/NFTTicketMarketplace.sol:NFTTicketMarketplace",
        "label": "idToMarketItem",
        "offset": 0,
        "slot": "13",
        "type": "t_mapping(t_uint256,t_struct(MarketItem)2064_storage)"
      },
      {
        "astId": 2044,
        "contract": "contracts/NFTTicketMarketplace.sol:NFTTicketMarketplace",
        "label": "idToEvent",
        "offset": 0,
        "slot": "14",
        "type": "t_mapping(t_uint256,t_struct(Event)1936_storage)"
      },
      {
        "astId": 2049,
        "contract": "contracts/NFTTicketMarketplace.sol:NFTTicketMarketplace",
        "label": "idToTicketType",
        "offset": 0,
        "slot": "15",
        "type": "t_mapping(t_uint256,t_struct(TicketType)1981_storage)"
      },
      {
        "astId": 2053,
        "contract": "contracts/NFTTicketMarketplace.sol:NFTTicketMarketplace",
        "label": "idTokenToIdTicketType",
        "offset": 0,
        "slot": "16",
        "type": "t_mapping(t_uint256,t_uint256)"
      }
    ],
    "types": {
      "t_address": {
        "encoding": "inplace",
        "label": "address",
        "numberOfBytes": "20"
      },
      "t_address_payable": {
        "encoding": "inplace",
        "label": "address payable",
        "numberOfBytes": "20"
      },
      "t_bool": {
        "encoding": "inplace",
        "label": "bool",
        "numberOfBytes": "1"
      },
      "t_int256": {
        "encoding": "inplace",
        "label": "int256",
        "numberOfBytes": "32"
      },
      "t_mapping(t_address,t_bool)": {
        "encoding": "mapping",
        "key": "t_address",
        "label": "mapping(address => bool)",
        "numberOfBytes": "32",
        "value": "t_bool"
      },
      "t_mapping(t_address,t_mapping(t_address,t_bool))": {
        "encoding": "mapping",
        "key": "t_address",
        "label": "mapping(address => mapping(address => bool))",
        "numberOfBytes": "32",
        "value": "t_mapping(t_address,t_bool)"
      },
      "t_mapping(t_address,t_uint256)": {
        "encoding": "mapping",
        "key": "t_address",
        "label": "mapping(address => uint256)",
        "numberOfBytes": "32",
        "value": "t_uint256"
      },
      "t_mapping(t_uint256,t_address)": {
        "encoding": "mapping",
        "key": "t_uint256",
        "label": "mapping(uint256 => address)",
        "numberOfBytes": "32",
        "value": "t_address"
      },
      "t_mapping(t_uint256,t_struct(Event)1936_storage)": {
        "encoding": "mapping",
        "key": "t_uint256",
        "label": "mapping(uint256 => struct NFTTicketMarketplace.Event)",
        "numberOfBytes": "32",
        "value": "t_struct(Event)1936_storage"
      },
      "t_mapping(t_uint256,t_struct(MarketItem)2064_storage)": {
        "encoding": "mapping",
        "key": "t_uint256",
        "label": "mapping(uint256 => struct NFTTicketMarketplace.MarketItem)",
        "numberOfBytes": "32",
        "value": "t_struct(MarketItem)2064_storage"
      },
      "t_mapping(t_uint256,t_struct(TicketType)1981_storage)": {
        "encoding": "mapping",
        "key": "t_uint256",
        "label": "mapping(uint256 => struct NFTTicketMarketplace.TicketType)",
        "numberOfBytes": "32",
        "value": "t_struct(TicketType)1981_storage"
      },
      "t_mapping(t_uint256,t_uint256)": {
        "encoding": "mapping",
        "key": "t_uint256",
        "label": "mapping(uint256 => uint256)",
        "numberOfBytes": "32",
        "value": "t_uint256"
      },
      "t_string_storage": {
        "encoding": "bytes",
        "label": "string",
        "numberOfBytes": "32"
      },
      "t_struct(Counter)1582_storage": {
        "encoding": "inplace",
        "label": "struct Counters.Counter",
        "members": [
          {
            "astId": 1581,
            "contract": "contracts/NFTTicketMarketplace.sol:NFTTicketMarketplace",
            "label": "_value",
            "offset": 0,
            "slot": "0",
            "type": "t_uint256"
          }
        ],
        "numberOfBytes": "32"
      },
      "t_struct(Event)1936_storage": {
        "encoding": "inplace",
        "label": "struct NFTTicketMarketplace.Event",
        "members": [
          {
            "astId": 1925,
            "contract": "contracts/NFTTicketMarketplace.sol:NFTTicketMarketplace",
            "label": "owner",
            "offset": 0,
            "slot": "0",
            "type": "t_address"
          },
          {
            "astId": 1927,
            "contract": "contracts/NFTTicketMarketplace.sol:NFTTicketMarketplace",
            "label": "createdTime",
            "offset": 0,
            "slot": "1",
            "type": "t_uint256"
          },
          {
            "astId": 1929,
            "contract": "contracts/NFTTicketMarketplace.sol:NFTTicketMarketplace",
            "label": "startTime",
            "offset": 0,
            "slot": "2",
            "type": "t_uint256"
          },
          {
            "astId": 1931,
            "contract": "contracts/NFTTicketMarketplace.sol:NFTTicketMarketplace",
            "label": "endTime",
            "offset": 0,
            "slot": "3",
            "type": "t_uint256"
          },
          {
            "astId": 1933,
            "contract": "contracts/NFTTicketMarketplace.sol:NFTTicketMarketplace",
            "label": "id",
            "offset": 0,
            "slot": "4",
            "type": "t_string_storage"
          },
          {
            "astId": 1935,
            "contract": "contracts/NFTTicketMarketplace.sol:NFTTicketMarketplace",
            "label": "exist",
            "offset": 0,
            "slot": "5",
            "type": "t_bool"
          }
        ],
        "numberOfBytes": "192"
      },
      "t_struct(MarketItem)2064_storage": {
        "encoding": "inplace",
        "label": "struct NFTTicketMarketplace.MarketItem",
        "members": [
          {
            "astId": 2055,
            "contract": "contracts/NFTTicketMarketplace.sol:NFTTicketMarketplace",
            "label": "tokenId",
            "offset": 0,
            "slot": "0",
            "type": "t_uint256"
          },
          {
            "astId": 2057,
            "contract": "contracts/NFTTicketMarketplace.sol:NFTTicketMarketplace",
            "label": "seller",
            "offset": 0,
            "slot": "1",
            "type": "t_address_payable"
          },
          {
            "astId": 2059,
            "contract": "contracts/NFTTicketMarketplace.sol:NFTTicketMarketplace",
            "label": "owner",
            "offset": 0,
            "slot": "2",
            "type": "t_address_payable"
          },
          {
            "astId": 2061,
            "contract": "contracts/NFTTicketMarketplace.sol:NFTTicketMarketplace",
            "label": "price",
            "offset": 0,
            "slot": "3",
            "type": "t_uint256"
          },
          {
            "astId": 2063,
            "contract": "contracts/NFTTicketMarketplace.sol:NFTTicketMarketplace",
            "label": "sold",
            "offset": 0,
            "slot": "4",
            "type": "t_bool"
          }
        ],
        "numberOfBytes": "160"
      },
      "t_struct(TicketType)1981_storage": {
        "encoding": "inplace",
        "label": "struct NFTTicketMarketplace.TicketType",
        "members": [
          {
            "astId": 1964,
            "contract": "contracts/NFTTicketMarketplace.sol:NFTTicketMarketplace",
            "label": "eventId",
            "offset": 0,
            "slot": "0",
            "type": "t_uint256"
          },
          {
            "astId": 1966,
            "contract": "contracts/NFTTicketMarketplace.sol:NFTTicketMarketplace",
            "label": "createdTime",
            "offset": 0,
            "slot": "1",
            "type": "t_uint256"
          },
          {
            "astId": 1968,
            "contract": "contracts/NFTTicketMarketplace.sol:NFTTicketMarketplace",
            "label": "id",
            "offset": 0,
            "slot": "2",
            "type": "t_string_storage"
          },
          {
            "astId": 1970,
            "contract": "contracts/NFTTicketMarketplace.sol:NFTTicketMarketplace",
            "label": "price",
            "offset": 0,
            "slot": "3",
            "type": "t_uint256"
          },
          {
            "astId": 1972,
            "contract": "contracts/NFTTicketMarketplace.sol:NFTTicketMarketplace",
            "label": "startSellingTime",
            "offset": 0,
            "slot": "4",
            "type": "t_uint256"
          },
          {
            "astId": 1974,
            "contract": "contracts/NFTTicketMarketplace.sol:NFTTicketMarketplace",
            "label": "endSellingTime",
            "offset": 0,
            "slot": "5",
            "type": "t_uint256"
          },
          {
            "astId": 1976,
            "contract": "contracts/NFTTicketMarketplace.sol:NFTTicketMarketplace",
            "label": "totalLimit",
            "offset": 0,
            "slot": "6",
            "type": "t_int256"
          },
          {
            "astId": 1978,
            "contract": "contracts/NFTTicketMarketplace.sol:NFTTicketMarketplace",
            "label": "currentLimit",
            "offset": 0,
            "slot": "7",
            "type": "t_int256"
          },
          {
            "astId": 1980,
            "contract": "contracts/NFTTicketMarketplace.sol:NFTTicketMarketplace",
            "label": "exist",
            "offset": 0,
            "slot": "8",
            "type": "t_bool"
          }
        ],
        "numberOfBytes": "288"
      },
      "t_uint256": {
        "encoding": "inplace",
        "label": "uint256",
        "numberOfBytes": "32"
      }
    }
  }
}